{
	"contracts/pokemon.sol": {
		"Entrador_pokemon": {
			"abi": [
				{
					"inputs": [],
					"stateMutability": "nonpayable",
					"type": "constructor"
				},
				{
					"inputs": [
						{
							"internalType": "string",
							"name": "_nombrePokemon",
							"type": "string"
						},
						{
							"internalType": "string",
							"name": "_tipo_pokemon",
							"type": "string"
						},
						{
							"internalType": "string",
							"name": "_ataque",
							"type": "string"
						},
						{
							"internalType": "uint256",
							"name": "_units",
							"type": "uint256"
						}
					],
					"name": "getPokemon",
					"outputs": [],
					"stateMutability": "nonpayable",
					"type": "function"
				},
				{
					"inputs": [
						{
							"internalType": "uint256",
							"name": "_number",
							"type": "uint256"
						}
					],
					"name": "hashPrivateNumber",
					"outputs": [
						{
							"internalType": "bytes32",
							"name": "",
							"type": "bytes32"
						}
					],
					"stateMutability": "view",
					"type": "function"
				},
				{
					"inputs": [],
					"name": "owner",
					"outputs": [
						{
							"internalType": "address",
							"name": "",
							"type": "address"
						}
					],
					"stateMutability": "view",
					"type": "function"
				}
			],
			"devdoc": {
				"kind": "dev",
				"methods": {},
				"version": 1
			},
			"evm": {
				"assembly": "    /* \"contracts/pokemon.sol\":640:1615  contract Entrador_pokemon is Pokemon {\r... */\n  mstore(0x40, 0x80)\n    /* \"contracts/pokemon.sol\":827:879  constructor () {\r... */\n  callvalue\n  dup1\n  iszero\n  tag_1\n  jumpi\n  0x00\n  dup1\n  revert\ntag_1:\n  pop\n    /* \"contracts/pokemon.sol\":861:871  msg.sender */\n  caller\n    /* \"contracts/pokemon.sol\":853:858  owner */\n  0x01\n  0x00\n    /* \"contracts/pokemon.sol\":853:871  owner = msg.sender */\n  0x0100\n  exp\n  dup2\n  sload\n  dup2\n  0xffffffffffffffffffffffffffffffffffffffff\n  mul\n  not\n  and\n  swap1\n  dup4\n  0xffffffffffffffffffffffffffffffffffffffff\n  and\n  mul\n  or\n  swap1\n  sstore\n  pop\n    /* \"contracts/pokemon.sol\":640:1615  contract Entrador_pokemon is Pokemon {\r... */\n  dataSize(sub_0)\n  dup1\n  dataOffset(sub_0)\n  0x00\n  codecopy\n  0x00\n  return\nstop\n\nsub_0: assembly {\n        /* \"contracts/pokemon.sol\":640:1615  contract Entrador_pokemon is Pokemon {\r... */\n      mstore(0x40, 0x80)\n      callvalue\n      dup1\n      iszero\n      tag_1\n      jumpi\n      0x00\n      dup1\n      revert\n    tag_1:\n      pop\n      jumpi(tag_2, lt(calldatasize, 0x04))\n      shr(0xe0, calldataload(0x00))\n      dup1\n      0x359468da\n      eq\n      tag_3\n      jumpi\n      dup1\n      0x8da5cb5b\n      eq\n      tag_4\n      jumpi\n      dup1\n      0xbda02842\n      eq\n      tag_5\n      jumpi\n    tag_2:\n      0x00\n      dup1\n      revert\n        /* \"contracts/pokemon.sol\":939:1220  function getPokemon(string memory _nombrePokemon, string memory _tipo_pokemon, string memory _ataque, uint _units) external {\r... */\n    tag_3:\n      tag_6\n      0x04\n      dup1\n      calldatasize\n      sub\n      dup2\n      add\n      swap1\n      tag_7\n      swap2\n      swap1\n      tag_8\n      jump\t// in\n    tag_7:\n      tag_9\n      jump\t// in\n    tag_6:\n      stop\n        /* \"contracts/pokemon.sol\":749:769  address public owner */\n    tag_4:\n      tag_10\n      tag_11\n      jump\t// in\n    tag_10:\n      mload(0x40)\n      tag_12\n      swap2\n      swap1\n      tag_13\n      jump\t// in\n    tag_12:\n      mload(0x40)\n      dup1\n      swap2\n      sub\n      swap1\n      return\n        /* \"contracts/pokemon.sol\":1469:1612  function hashPrivateNumber(uint _number) public view onlyOwner returns (bytes32) {\r... */\n    tag_5:\n      tag_14\n      0x04\n      dup1\n      calldatasize\n      sub\n      dup2\n      add\n      swap1\n      tag_15\n      swap2\n      swap1\n      tag_16\n      jump\t// in\n    tag_15:\n      tag_17\n      jump\t// in\n    tag_14:\n      mload(0x40)\n      tag_18\n      swap2\n      swap1\n      tag_19\n      jump\t// in\n    tag_18:\n      mload(0x40)\n      dup1\n      swap2\n      sub\n      swap1\n      return\n        /* \"contracts/pokemon.sol\":939:1220  function getPokemon(string memory _nombrePokemon, string memory _tipo_pokemon, string memory _ataque, uint _units) external {\r... */\n    tag_9:\n        /* \"contracts/pokemon.sol\":1092:1093  2 */\n      0x02\n        /* \"contracts/pokemon.sol\":1083:1089  _units */\n      dup2\n        /* \"contracts/pokemon.sol\":1083:1093  _units <=2 */\n      gt\n      iszero\n        /* \"contracts/pokemon.sol\":1074:1139  require (_units <=2, \"Solo puedes conseguir un pokemon cada vez\") */\n      tag_21\n      jumpi\n      mload(0x40)\n      0x08c379a000000000000000000000000000000000000000000000000000000000\n      dup2\n      mstore\n      0x04\n      add\n      tag_22\n      swap1\n      tag_23\n      jump\t// in\n    tag_22:\n      mload(0x40)\n      dup1\n      swap2\n      sub\n      swap1\n      revert\n    tag_21:\n        /* \"contracts/pokemon.sol\":1150:1212  capturar_nuevo_pokemon(_nombrePokemon, _tipo_pokemon, _ataque) */\n      tag_24\n        /* \"contracts/pokemon.sol\":1173:1187  _nombrePokemon */\n      dup5\n        /* \"contracts/pokemon.sol\":1189:1202  _tipo_pokemon */\n      dup5\n        /* \"contracts/pokemon.sol\":1204:1211  _ataque */\n      dup5\n        /* \"contracts/pokemon.sol\":1150:1172  capturar_nuevo_pokemon */\n      tag_25\n        /* \"contracts/pokemon.sol\":1150:1212  capturar_nuevo_pokemon(_nombrePokemon, _tipo_pokemon, _ataque) */\n      jump\t// in\n    tag_24:\n        /* \"contracts/pokemon.sol\":939:1220  function getPokemon(string memory _nombrePokemon, string memory _tipo_pokemon, string memory _ataque, uint _units) external {\r... */\n      pop\n      pop\n      pop\n      pop\n      jump\t// out\n        /* \"contracts/pokemon.sol\":749:769  address public owner */\n    tag_11:\n      0x01\n      0x00\n      swap1\n      sload\n      swap1\n      0x0100\n      exp\n      swap1\n      div\n      0xffffffffffffffffffffffffffffffffffffffff\n      and\n      dup2\n      jump\t// out\n        /* \"contracts/pokemon.sol\":1469:1612  function hashPrivateNumber(uint _number) public view onlyOwner returns (bytes32) {\r... */\n    tag_17:\n        /* \"contracts/pokemon.sol\":1541:1548  bytes32 */\n      0x00\n        /* \"contracts/pokemon.sol\":1362:1372  msg.sender */\n      caller\n        /* \"contracts/pokemon.sol\":1353:1372  owner == msg.sender */\n      0xffffffffffffffffffffffffffffffffffffffff\n      and\n        /* \"contracts/pokemon.sol\":1353:1358  owner */\n      0x01\n      0x00\n      swap1\n      sload\n      swap1\n      0x0100\n      exp\n      swap1\n      div\n      0xffffffffffffffffffffffffffffffffffffffff\n      and\n        /* \"contracts/pokemon.sol\":1353:1372  owner == msg.sender */\n      0xffffffffffffffffffffffffffffffffffffffff\n      and\n      eq\n        /* \"contracts/pokemon.sol\":1345:1441  require(owner == msg.sender, \"No tienes permisos para capturar estos pokemon para esta Pokedex\") */\n      tag_27\n      jumpi\n      mload(0x40)\n      0x08c379a000000000000000000000000000000000000000000000000000000000\n      dup2\n      mstore\n      0x04\n      add\n      tag_28\n      swap1\n      tag_29\n      jump\t// in\n    tag_28:\n      mload(0x40)\n      dup1\n      swap2\n      sub\n      swap1\n      revert\n    tag_27:\n        /* \"contracts/pokemon.sol\":1595:1602  _number */\n      dup2\n        /* \"contracts/pokemon.sol\":1578:1603  abi.encodePacked(_number) */\n      add(0x20, mload(0x40))\n      tag_31\n      swap2\n      swap1\n      tag_32\n      jump\t// in\n    tag_31:\n      mload(0x40)\n      0x20\n      dup2\n      dup4\n      sub\n      sub\n      dup2\n      mstore\n      swap1\n      0x40\n      mstore\n        /* \"contracts/pokemon.sol\":1568:1604  keccak256(abi.encodePacked(_number)) */\n      dup1\n      mload\n      swap1\n      0x20\n      add\n      keccak256\n        /* \"contracts/pokemon.sol\":1561:1604  return keccak256(abi.encodePacked(_number)) */\n      swap1\n      pop\n        /* \"contracts/pokemon.sol\":1469:1612  function hashPrivateNumber(uint _number) public view onlyOwner returns (bytes32) {\r... */\n      swap2\n      swap1\n      pop\n      jump\t// out\n        /* \"contracts/pokemon.sol\":445:633  function capturar_nuevo_pokemon(string memory _name, string memory _tipo_pokemon, string memory _ataque) internal {\r... */\n    tag_25:\n        /* \"contracts/pokemon.sol\":570:577  pokedex */\n      0x00\n        /* \"contracts/pokemon.sol\":583:624  cualidades(_name, _tipo_pokemon, _ataque) */\n      mload(0x40)\n      dup1\n      0x60\n      add\n      0x40\n      mstore\n      dup1\n        /* \"contracts/pokemon.sol\":594:599  _name */\n      dup6\n        /* \"contracts/pokemon.sol\":583:624  cualidades(_name, _tipo_pokemon, _ataque) */\n      dup2\n      mstore\n      0x20\n      add\n        /* \"contracts/pokemon.sol\":601:614  _tipo_pokemon */\n      dup5\n        /* \"contracts/pokemon.sol\":583:624  cualidades(_name, _tipo_pokemon, _ataque) */\n      dup2\n      mstore\n      0x20\n      add\n        /* \"contracts/pokemon.sol\":616:623  _ataque */\n      dup4\n        /* \"contracts/pokemon.sol\":583:624  cualidades(_name, _tipo_pokemon, _ataque) */\n      dup2\n      mstore\n      pop\n        /* \"contracts/pokemon.sol\":570:625  pokedex.push(cualidades(_name, _tipo_pokemon, _ataque)) */\n      swap1\n      dup1\n      0x01\n      dup2\n      sload\n      add\n      dup1\n      dup3\n      sstore\n      dup1\n      swap2\n      pop\n      pop\n      0x01\n      swap1\n      sub\n      swap1\n      0x00\n      mstore\n      keccak256(0x00, 0x20)\n      swap1\n      0x03\n      mul\n      add\n      0x00\n      swap1\n      swap2\n      swap1\n      swap2\n      swap1\n      swap2\n      pop\n      0x00\n      dup3\n      add\n      mload\n      dup2\n      0x00\n      add\n      swap1\n      dup1\n      mload\n      swap1\n      0x20\n      add\n      swap1\n      tag_35\n      swap3\n      swap2\n      swap1\n      tag_36\n      jump\t// in\n    tag_35:\n      pop\n      0x20\n      dup3\n      add\n      mload\n      dup2\n      0x01\n      add\n      swap1\n      dup1\n      mload\n      swap1\n      0x20\n      add\n      swap1\n      tag_37\n      swap3\n      swap2\n      swap1\n      tag_36\n      jump\t// in\n    tag_37:\n      pop\n      0x40\n      dup3\n      add\n      mload\n      dup2\n      0x02\n      add\n      swap1\n      dup1\n      mload\n      swap1\n      0x20\n      add\n      swap1\n      tag_38\n      swap3\n      swap2\n      swap1\n      tag_36\n      jump\t// in\n    tag_38:\n      pop\n      pop\n      pop\n        /* \"contracts/pokemon.sol\":445:633  function capturar_nuevo_pokemon(string memory _name, string memory _tipo_pokemon, string memory _ataque) internal {\r... */\n      pop\n      pop\n      pop\n      jump\t// out\n    tag_36:\n      dup3\n      dup1\n      sload\n      tag_39\n      swap1\n      tag_40\n      jump\t// in\n    tag_39:\n      swap1\n      0x00\n      mstore\n      keccak256(0x00, 0x20)\n      swap1\n      0x1f\n      add\n      0x20\n      swap1\n      div\n      dup2\n      add\n      swap3\n      dup3\n      tag_42\n      jumpi\n      0x00\n      dup6\n      sstore\n      jump(tag_41)\n    tag_42:\n      dup3\n      0x1f\n      lt\n      tag_43\n      jumpi\n      dup1\n      mload\n      not(0xff)\n      and\n      dup4\n      dup1\n      add\n      or\n      dup6\n      sstore\n      jump(tag_41)\n    tag_43:\n      dup3\n      dup1\n      add\n      0x01\n      add\n      dup6\n      sstore\n      dup3\n      iszero\n      tag_41\n      jumpi\n      swap2\n      dup3\n      add\n    tag_44:\n      dup3\n      dup2\n      gt\n      iszero\n      tag_45\n      jumpi\n      dup3\n      mload\n      dup3\n      sstore\n      swap2\n      0x20\n      add\n      swap2\n      swap1\n      0x01\n      add\n      swap1\n      jump(tag_44)\n    tag_45:\n    tag_41:\n      pop\n      swap1\n      pop\n      tag_46\n      swap2\n      swap1\n      tag_47\n      jump\t// in\n    tag_46:\n      pop\n      swap1\n      jump\t// out\n    tag_47:\n    tag_48:\n      dup1\n      dup3\n      gt\n      iszero\n      tag_49\n      jumpi\n      0x00\n      dup2\n      0x00\n      swap1\n      sstore\n      pop\n      0x01\n      add\n      jump(tag_48)\n    tag_49:\n      pop\n      swap1\n      jump\t// out\n        /* \"#utility.yul\":7:352   */\n    tag_51:\n        /* \"#utility.yul\":85:90   */\n      0x00\n        /* \"#utility.yul\":110:176   */\n      tag_53\n        /* \"#utility.yul\":126:175   */\n      tag_54\n        /* \"#utility.yul\":168:174   */\n      dup5\n        /* \"#utility.yul\":126:175   */\n      tag_55\n      jump\t// in\n    tag_54:\n        /* \"#utility.yul\":110:176   */\n      tag_56\n      jump\t// in\n    tag_53:\n        /* \"#utility.yul\":101:176   */\n      swap1\n      pop\n        /* \"#utility.yul\":199:205   */\n      dup3\n        /* \"#utility.yul\":192:197   */\n      dup2\n        /* \"#utility.yul\":185:206   */\n      mstore\n        /* \"#utility.yul\":237:241   */\n      0x20\n        /* \"#utility.yul\":230:235   */\n      dup2\n        /* \"#utility.yul\":226:242   */\n      add\n        /* \"#utility.yul\":275:278   */\n      dup5\n        /* \"#utility.yul\":266:272   */\n      dup5\n        /* \"#utility.yul\":261:264   */\n      dup5\n        /* \"#utility.yul\":257:273   */\n      add\n        /* \"#utility.yul\":254:279   */\n      gt\n        /* \"#utility.yul\":251:253   */\n      iszero\n      tag_57\n      jumpi\n        /* \"#utility.yul\":292:293   */\n      0x00\n        /* \"#utility.yul\":289:290   */\n      dup1\n        /* \"#utility.yul\":282:294   */\n      revert\n        /* \"#utility.yul\":251:253   */\n    tag_57:\n        /* \"#utility.yul\":305:346   */\n      tag_58\n        /* \"#utility.yul\":339:345   */\n      dup5\n        /* \"#utility.yul\":334:337   */\n      dup3\n        /* \"#utility.yul\":329:332   */\n      dup6\n        /* \"#utility.yul\":305:346   */\n      tag_59\n      jump\t// in\n    tag_58:\n        /* \"#utility.yul\":91:352   */\n      pop\n      swap4\n      swap3\n      pop\n      pop\n      pop\n      jump\t// out\n        /* \"#utility.yul\":372:645   */\n    tag_60:\n        /* \"#utility.yul\":428:433   */\n      0x00\n        /* \"#utility.yul\":477:480   */\n      dup3\n        /* \"#utility.yul\":470:474   */\n      0x1f\n        /* \"#utility.yul\":462:468   */\n      dup4\n        /* \"#utility.yul\":458:475   */\n      add\n        /* \"#utility.yul\":454:481   */\n      slt\n        /* \"#utility.yul\":444:446   */\n      tag_62\n      jumpi\n        /* \"#utility.yul\":495:496   */\n      0x00\n        /* \"#utility.yul\":492:493   */\n      dup1\n        /* \"#utility.yul\":485:497   */\n      revert\n        /* \"#utility.yul\":444:446   */\n    tag_62:\n        /* \"#utility.yul\":535:541   */\n      dup2\n        /* \"#utility.yul\":522:542   */\n      calldataload\n        /* \"#utility.yul\":560:639   */\n      tag_63\n        /* \"#utility.yul\":635:638   */\n      dup5\n        /* \"#utility.yul\":627:633   */\n      dup3\n        /* \"#utility.yul\":620:624   */\n      0x20\n        /* \"#utility.yul\":612:618   */\n      dup7\n        /* \"#utility.yul\":608:625   */\n      add\n        /* \"#utility.yul\":560:639   */\n      tag_51\n      jump\t// in\n    tag_63:\n        /* \"#utility.yul\":551:639   */\n      swap2\n      pop\n        /* \"#utility.yul\":434:645   */\n      pop\n      swap3\n      swap2\n      pop\n      pop\n      jump\t// out\n        /* \"#utility.yul\":651:790   */\n    tag_64:\n        /* \"#utility.yul\":697:702   */\n      0x00\n        /* \"#utility.yul\":735:741   */\n      dup2\n        /* \"#utility.yul\":722:742   */\n      calldataload\n        /* \"#utility.yul\":713:742   */\n      swap1\n      pop\n        /* \"#utility.yul\":751:784   */\n      tag_66\n        /* \"#utility.yul\":778:783   */\n      dup2\n        /* \"#utility.yul\":751:784   */\n      tag_67\n      jump\t// in\n    tag_66:\n        /* \"#utility.yul\":703:790   */\n      swap3\n      swap2\n      pop\n      pop\n      jump\t// out\n        /* \"#utility.yul\":796:1833   */\n    tag_8:\n        /* \"#utility.yul\":912:918   */\n      0x00\n        /* \"#utility.yul\":920:926   */\n      dup1\n        /* \"#utility.yul\":928:934   */\n      0x00\n        /* \"#utility.yul\":936:942   */\n      dup1\n        /* \"#utility.yul\":985:988   */\n      0x80\n        /* \"#utility.yul\":973:982   */\n      dup6\n        /* \"#utility.yul\":964:971   */\n      dup8\n        /* \"#utility.yul\":960:983   */\n      sub\n        /* \"#utility.yul\":956:989   */\n      slt\n        /* \"#utility.yul\":953:955   */\n      iszero\n      tag_69\n      jumpi\n        /* \"#utility.yul\":1002:1003   */\n      0x00\n        /* \"#utility.yul\":999:1000   */\n      dup1\n        /* \"#utility.yul\":992:1004   */\n      revert\n        /* \"#utility.yul\":953:955   */\n    tag_69:\n        /* \"#utility.yul\":1073:1074   */\n      0x00\n        /* \"#utility.yul\":1062:1071   */\n      dup6\n        /* \"#utility.yul\":1058:1075   */\n      add\n        /* \"#utility.yul\":1045:1076   */\n      calldataload\n        /* \"#utility.yul\":1103:1121   */\n      0xffffffffffffffff\n        /* \"#utility.yul\":1095:1101   */\n      dup2\n        /* \"#utility.yul\":1092:1122   */\n      gt\n        /* \"#utility.yul\":1089:1091   */\n      iszero\n      tag_70\n      jumpi\n        /* \"#utility.yul\":1135:1136   */\n      0x00\n        /* \"#utility.yul\":1132:1133   */\n      dup1\n        /* \"#utility.yul\":1125:1137   */\n      revert\n        /* \"#utility.yul\":1089:1091   */\n    tag_70:\n        /* \"#utility.yul\":1163:1226   */\n      tag_71\n        /* \"#utility.yul\":1218:1225   */\n      dup8\n        /* \"#utility.yul\":1209:1215   */\n      dup3\n        /* \"#utility.yul\":1198:1207   */\n      dup9\n        /* \"#utility.yul\":1194:1216   */\n      add\n        /* \"#utility.yul\":1163:1226   */\n      tag_60\n      jump\t// in\n    tag_71:\n        /* \"#utility.yul\":1153:1226   */\n      swap5\n      pop\n        /* \"#utility.yul\":1016:1236   */\n      pop\n        /* \"#utility.yul\":1303:1305   */\n      0x20\n        /* \"#utility.yul\":1292:1301   */\n      dup6\n        /* \"#utility.yul\":1288:1306   */\n      add\n        /* \"#utility.yul\":1275:1307   */\n      calldataload\n        /* \"#utility.yul\":1334:1352   */\n      0xffffffffffffffff\n        /* \"#utility.yul\":1326:1332   */\n      dup2\n        /* \"#utility.yul\":1323:1353   */\n      gt\n        /* \"#utility.yul\":1320:1322   */\n      iszero\n      tag_72\n      jumpi\n        /* \"#utility.yul\":1366:1367   */\n      0x00\n        /* \"#utility.yul\":1363:1364   */\n      dup1\n        /* \"#utility.yul\":1356:1368   */\n      revert\n        /* \"#utility.yul\":1320:1322   */\n    tag_72:\n        /* \"#utility.yul\":1394:1457   */\n      tag_73\n        /* \"#utility.yul\":1449:1456   */\n      dup8\n        /* \"#utility.yul\":1440:1446   */\n      dup3\n        /* \"#utility.yul\":1429:1438   */\n      dup9\n        /* \"#utility.yul\":1425:1447   */\n      add\n        /* \"#utility.yul\":1394:1457   */\n      tag_60\n      jump\t// in\n    tag_73:\n        /* \"#utility.yul\":1384:1457   */\n      swap4\n      pop\n        /* \"#utility.yul\":1246:1467   */\n      pop\n        /* \"#utility.yul\":1534:1536   */\n      0x40\n        /* \"#utility.yul\":1523:1532   */\n      dup6\n        /* \"#utility.yul\":1519:1537   */\n      add\n        /* \"#utility.yul\":1506:1538   */\n      calldataload\n        /* \"#utility.yul\":1565:1583   */\n      0xffffffffffffffff\n        /* \"#utility.yul\":1557:1563   */\n      dup2\n        /* \"#utility.yul\":1554:1584   */\n      gt\n        /* \"#utility.yul\":1551:1553   */\n      iszero\n      tag_74\n      jumpi\n        /* \"#utility.yul\":1597:1598   */\n      0x00\n        /* \"#utility.yul\":1594:1595   */\n      dup1\n        /* \"#utility.yul\":1587:1599   */\n      revert\n        /* \"#utility.yul\":1551:1553   */\n    tag_74:\n        /* \"#utility.yul\":1625:1688   */\n      tag_75\n        /* \"#utility.yul\":1680:1687   */\n      dup8\n        /* \"#utility.yul\":1671:1677   */\n      dup3\n        /* \"#utility.yul\":1660:1669   */\n      dup9\n        /* \"#utility.yul\":1656:1678   */\n      add\n        /* \"#utility.yul\":1625:1688   */\n      tag_60\n      jump\t// in\n    tag_75:\n        /* \"#utility.yul\":1615:1688   */\n      swap3\n      pop\n        /* \"#utility.yul\":1477:1698   */\n      pop\n        /* \"#utility.yul\":1737:1739   */\n      0x60\n        /* \"#utility.yul\":1763:1816   */\n      tag_76\n        /* \"#utility.yul\":1808:1815   */\n      dup8\n        /* \"#utility.yul\":1799:1805   */\n      dup3\n        /* \"#utility.yul\":1788:1797   */\n      dup9\n        /* \"#utility.yul\":1784:1806   */\n      add\n        /* \"#utility.yul\":1763:1816   */\n      tag_64\n      jump\t// in\n    tag_76:\n        /* \"#utility.yul\":1753:1816   */\n      swap2\n      pop\n        /* \"#utility.yul\":1708:1826   */\n      pop\n        /* \"#utility.yul\":943:1833   */\n      swap3\n      swap6\n      swap2\n      swap5\n      pop\n      swap3\n      pop\n      jump\t// out\n        /* \"#utility.yul\":1839:2101   */\n    tag_16:\n        /* \"#utility.yul\":1898:1904   */\n      0x00\n        /* \"#utility.yul\":1947:1949   */\n      0x20\n        /* \"#utility.yul\":1935:1944   */\n      dup3\n        /* \"#utility.yul\":1926:1933   */\n      dup5\n        /* \"#utility.yul\":1922:1945   */\n      sub\n        /* \"#utility.yul\":1918:1950   */\n      slt\n        /* \"#utility.yul\":1915:1917   */\n      iszero\n      tag_78\n      jumpi\n        /* \"#utility.yul\":1963:1964   */\n      0x00\n        /* \"#utility.yul\":1960:1961   */\n      dup1\n        /* \"#utility.yul\":1953:1965   */\n      revert\n        /* \"#utility.yul\":1915:1917   */\n    tag_78:\n        /* \"#utility.yul\":2006:2007   */\n      0x00\n        /* \"#utility.yul\":2031:2084   */\n      tag_79\n        /* \"#utility.yul\":2076:2083   */\n      dup5\n        /* \"#utility.yul\":2067:2073   */\n      dup3\n        /* \"#utility.yul\":2056:2065   */\n      dup6\n        /* \"#utility.yul\":2052:2074   */\n      add\n        /* \"#utility.yul\":2031:2084   */\n      tag_64\n      jump\t// in\n    tag_79:\n        /* \"#utility.yul\":2021:2084   */\n      swap2\n      pop\n        /* \"#utility.yul\":1977:2094   */\n      pop\n        /* \"#utility.yul\":1905:2101   */\n      swap3\n      swap2\n      pop\n      pop\n      jump\t// out\n        /* \"#utility.yul\":2107:2225   */\n    tag_80:\n        /* \"#utility.yul\":2194:2218   */\n      tag_82\n        /* \"#utility.yul\":2212:2217   */\n      dup2\n        /* \"#utility.yul\":2194:2218   */\n      tag_83\n      jump\t// in\n    tag_82:\n        /* \"#utility.yul\":2189:2192   */\n      dup3\n        /* \"#utility.yul\":2182:2219   */\n      mstore\n        /* \"#utility.yul\":2172:2225   */\n      pop\n      pop\n      jump\t// out\n        /* \"#utility.yul\":2231:2349   */\n    tag_84:\n        /* \"#utility.yul\":2318:2342   */\n      tag_86\n        /* \"#utility.yul\":2336:2341   */\n      dup2\n        /* \"#utility.yul\":2318:2342   */\n      tag_87\n      jump\t// in\n    tag_86:\n        /* \"#utility.yul\":2313:2316   */\n      dup3\n        /* \"#utility.yul\":2306:2343   */\n      mstore\n        /* \"#utility.yul\":2296:2349   */\n      pop\n      pop\n      jump\t// out\n        /* \"#utility.yul\":2355:2721   */\n    tag_88:\n        /* \"#utility.yul\":2497:2500   */\n      0x00\n        /* \"#utility.yul\":2518:2585   */\n      tag_90\n        /* \"#utility.yul\":2582:2584   */\n      0x29\n        /* \"#utility.yul\":2577:2580   */\n      dup4\n        /* \"#utility.yul\":2518:2585   */\n      tag_91\n      jump\t// in\n    tag_90:\n        /* \"#utility.yul\":2511:2585   */\n      swap2\n      pop\n        /* \"#utility.yul\":2594:2687   */\n      tag_92\n        /* \"#utility.yul\":2683:2686   */\n      dup3\n        /* \"#utility.yul\":2594:2687   */\n      tag_93\n      jump\t// in\n    tag_92:\n        /* \"#utility.yul\":2712:2714   */\n      0x40\n        /* \"#utility.yul\":2707:2710   */\n      dup3\n        /* \"#utility.yul\":2703:2715   */\n      add\n        /* \"#utility.yul\":2696:2715   */\n      swap1\n      pop\n        /* \"#utility.yul\":2501:2721   */\n      swap2\n      swap1\n      pop\n      jump\t// out\n        /* \"#utility.yul\":2727:3093   */\n    tag_94:\n        /* \"#utility.yul\":2869:2872   */\n      0x00\n        /* \"#utility.yul\":2890:2957   */\n      tag_96\n        /* \"#utility.yul\":2954:2956   */\n      0x40\n        /* \"#utility.yul\":2949:2952   */\n      dup4\n        /* \"#utility.yul\":2890:2957   */\n      tag_91\n      jump\t// in\n    tag_96:\n        /* \"#utility.yul\":2883:2957   */\n      swap2\n      pop\n        /* \"#utility.yul\":2966:3059   */\n      tag_97\n        /* \"#utility.yul\":3055:3058   */\n      dup3\n        /* \"#utility.yul\":2966:3059   */\n      tag_98\n      jump\t// in\n    tag_97:\n        /* \"#utility.yul\":3084:3086   */\n      0x40\n        /* \"#utility.yul\":3079:3082   */\n      dup3\n        /* \"#utility.yul\":3075:3087   */\n      add\n        /* \"#utility.yul\":3068:3087   */\n      swap1\n      pop\n        /* \"#utility.yul\":2873:3093   */\n      swap2\n      swap1\n      pop\n      jump\t// out\n        /* \"#utility.yul\":3099:3256   */\n    tag_99:\n        /* \"#utility.yul\":3204:3249   */\n      tag_101\n        /* \"#utility.yul\":3224:3248   */\n      tag_102\n        /* \"#utility.yul\":3242:3247   */\n      dup3\n        /* \"#utility.yul\":3224:3248   */\n      tag_103\n      jump\t// in\n    tag_102:\n        /* \"#utility.yul\":3204:3249   */\n      tag_104\n      jump\t// in\n    tag_101:\n        /* \"#utility.yul\":3199:3202   */\n      dup3\n        /* \"#utility.yul\":3192:3250   */\n      mstore\n        /* \"#utility.yul\":3182:3256   */\n      pop\n      pop\n      jump\t// out\n        /* \"#utility.yul\":3262:3518   */\n    tag_32:\n        /* \"#utility.yul\":3374:3377   */\n      0x00\n        /* \"#utility.yul\":3389:3464   */\n      tag_106\n        /* \"#utility.yul\":3460:3463   */\n      dup3\n        /* \"#utility.yul\":3451:3457   */\n      dup5\n        /* \"#utility.yul\":3389:3464   */\n      tag_99\n      jump\t// in\n    tag_106:\n        /* \"#utility.yul\":3489:3491   */\n      0x20\n        /* \"#utility.yul\":3484:3487   */\n      dup3\n        /* \"#utility.yul\":3480:3492   */\n      add\n        /* \"#utility.yul\":3473:3492   */\n      swap2\n      pop\n        /* \"#utility.yul\":3509:3512   */\n      dup2\n        /* \"#utility.yul\":3502:3512   */\n      swap1\n      pop\n        /* \"#utility.yul\":3378:3518   */\n      swap3\n      swap2\n      pop\n      pop\n      jump\t// out\n        /* \"#utility.yul\":3524:3746   */\n    tag_13:\n        /* \"#utility.yul\":3617:3621   */\n      0x00\n        /* \"#utility.yul\":3655:3657   */\n      0x20\n        /* \"#utility.yul\":3644:3653   */\n      dup3\n        /* \"#utility.yul\":3640:3658   */\n      add\n        /* \"#utility.yul\":3632:3658   */\n      swap1\n      pop\n        /* \"#utility.yul\":3668:3739   */\n      tag_108\n        /* \"#utility.yul\":3736:3737   */\n      0x00\n        /* \"#utility.yul\":3725:3734   */\n      dup4\n        /* \"#utility.yul\":3721:3738   */\n      add\n        /* \"#utility.yul\":3712:3718   */\n      dup5\n        /* \"#utility.yul\":3668:3739   */\n      tag_80\n      jump\t// in\n    tag_108:\n        /* \"#utility.yul\":3622:3746   */\n      swap3\n      swap2\n      pop\n      pop\n      jump\t// out\n        /* \"#utility.yul\":3752:3974   */\n    tag_19:\n        /* \"#utility.yul\":3845:3849   */\n      0x00\n        /* \"#utility.yul\":3883:3885   */\n      0x20\n        /* \"#utility.yul\":3872:3881   */\n      dup3\n        /* \"#utility.yul\":3868:3886   */\n      add\n        /* \"#utility.yul\":3860:3886   */\n      swap1\n      pop\n        /* \"#utility.yul\":3896:3967   */\n      tag_110\n        /* \"#utility.yul\":3964:3965   */\n      0x00\n        /* \"#utility.yul\":3953:3962   */\n      dup4\n        /* \"#utility.yul\":3949:3966   */\n      add\n        /* \"#utility.yul\":3940:3946   */\n      dup5\n        /* \"#utility.yul\":3896:3967   */\n      tag_84\n      jump\t// in\n    tag_110:\n        /* \"#utility.yul\":3850:3974   */\n      swap3\n      swap2\n      pop\n      pop\n      jump\t// out\n        /* \"#utility.yul\":3980:4399   */\n    tag_23:\n        /* \"#utility.yul\":4146:4150   */\n      0x00\n        /* \"#utility.yul\":4184:4186   */\n      0x20\n        /* \"#utility.yul\":4173:4182   */\n      dup3\n        /* \"#utility.yul\":4169:4187   */\n      add\n        /* \"#utility.yul\":4161:4187   */\n      swap1\n      pop\n        /* \"#utility.yul\":4233:4242   */\n      dup2\n        /* \"#utility.yul\":4227:4231   */\n      dup2\n        /* \"#utility.yul\":4223:4243   */\n      sub\n        /* \"#utility.yul\":4219:4220   */\n      0x00\n        /* \"#utility.yul\":4208:4217   */\n      dup4\n        /* \"#utility.yul\":4204:4221   */\n      add\n        /* \"#utility.yul\":4197:4244   */\n      mstore\n        /* \"#utility.yul\":4261:4392   */\n      tag_112\n        /* \"#utility.yul\":4387:4391   */\n      dup2\n        /* \"#utility.yul\":4261:4392   */\n      tag_88\n      jump\t// in\n    tag_112:\n        /* \"#utility.yul\":4253:4392   */\n      swap1\n      pop\n        /* \"#utility.yul\":4151:4399   */\n      swap2\n      swap1\n      pop\n      jump\t// out\n        /* \"#utility.yul\":4405:4824   */\n    tag_29:\n        /* \"#utility.yul\":4571:4575   */\n      0x00\n        /* \"#utility.yul\":4609:4611   */\n      0x20\n        /* \"#utility.yul\":4598:4607   */\n      dup3\n        /* \"#utility.yul\":4594:4612   */\n      add\n        /* \"#utility.yul\":4586:4612   */\n      swap1\n      pop\n        /* \"#utility.yul\":4658:4667   */\n      dup2\n        /* \"#utility.yul\":4652:4656   */\n      dup2\n        /* \"#utility.yul\":4648:4668   */\n      sub\n        /* \"#utility.yul\":4644:4645   */\n      0x00\n        /* \"#utility.yul\":4633:4642   */\n      dup4\n        /* \"#utility.yul\":4629:4646   */\n      add\n        /* \"#utility.yul\":4622:4669   */\n      mstore\n        /* \"#utility.yul\":4686:4817   */\n      tag_114\n        /* \"#utility.yul\":4812:4816   */\n      dup2\n        /* \"#utility.yul\":4686:4817   */\n      tag_94\n      jump\t// in\n    tag_114:\n        /* \"#utility.yul\":4678:4817   */\n      swap1\n      pop\n        /* \"#utility.yul\":4576:4824   */\n      swap2\n      swap1\n      pop\n      jump\t// out\n        /* \"#utility.yul\":4830:4959   */\n    tag_56:\n        /* \"#utility.yul\":4864:4870   */\n      0x00\n        /* \"#utility.yul\":4891:4911   */\n      tag_116\n      tag_117\n      jump\t// in\n    tag_116:\n        /* \"#utility.yul\":4881:4911   */\n      swap1\n      pop\n        /* \"#utility.yul\":4920:4953   */\n      tag_118\n        /* \"#utility.yul\":4948:4952   */\n      dup3\n        /* \"#utility.yul\":4940:4946   */\n      dup3\n        /* \"#utility.yul\":4920:4953   */\n      tag_119\n      jump\t// in\n    tag_118:\n        /* \"#utility.yul\":4871:4959   */\n      swap2\n      swap1\n      pop\n      jump\t// out\n        /* \"#utility.yul\":4965:5040   */\n    tag_117:\n        /* \"#utility.yul\":4998:5004   */\n      0x00\n        /* \"#utility.yul\":5031:5033   */\n      0x40\n        /* \"#utility.yul\":5025:5034   */\n      mload\n        /* \"#utility.yul\":5015:5034   */\n      swap1\n      pop\n        /* \"#utility.yul\":5005:5040   */\n      swap1\n      jump\t// out\n        /* \"#utility.yul\":5046:5354   */\n    tag_55:\n        /* \"#utility.yul\":5108:5112   */\n      0x00\n        /* \"#utility.yul\":5198:5216   */\n      0xffffffffffffffff\n        /* \"#utility.yul\":5190:5196   */\n      dup3\n        /* \"#utility.yul\":5187:5217   */\n      gt\n        /* \"#utility.yul\":5184:5186   */\n      iszero\n      tag_122\n      jumpi\n        /* \"#utility.yul\":5220:5238   */\n      tag_123\n      tag_124\n      jump\t// in\n    tag_123:\n        /* \"#utility.yul\":5184:5186   */\n    tag_122:\n        /* \"#utility.yul\":5258:5287   */\n      tag_125\n        /* \"#utility.yul\":5280:5286   */\n      dup3\n        /* \"#utility.yul\":5258:5287   */\n      tag_126\n      jump\t// in\n    tag_125:\n        /* \"#utility.yul\":5250:5287   */\n      swap1\n      pop\n        /* \"#utility.yul\":5342:5346   */\n      0x20\n        /* \"#utility.yul\":5336:5340   */\n      dup2\n        /* \"#utility.yul\":5332:5347   */\n      add\n        /* \"#utility.yul\":5324:5347   */\n      swap1\n      pop\n        /* \"#utility.yul\":5113:5354   */\n      swap2\n      swap1\n      pop\n      jump\t// out\n        /* \"#utility.yul\":5360:5529   */\n    tag_91:\n        /* \"#utility.yul\":5444:5455   */\n      0x00\n        /* \"#utility.yul\":5478:5484   */\n      dup3\n        /* \"#utility.yul\":5473:5476   */\n      dup3\n        /* \"#utility.yul\":5466:5485   */\n      mstore\n        /* \"#utility.yul\":5518:5522   */\n      0x20\n        /* \"#utility.yul\":5513:5516   */\n      dup3\n        /* \"#utility.yul\":5509:5523   */\n      add\n        /* \"#utility.yul\":5494:5523   */\n      swap1\n      pop\n        /* \"#utility.yul\":5456:5529   */\n      swap3\n      swap2\n      pop\n      pop\n      jump\t// out\n        /* \"#utility.yul\":5535:5631   */\n    tag_83:\n        /* \"#utility.yul\":5572:5579   */\n      0x00\n        /* \"#utility.yul\":5601:5625   */\n      tag_129\n        /* \"#utility.yul\":5619:5624   */\n      dup3\n        /* \"#utility.yul\":5601:5625   */\n      tag_130\n      jump\t// in\n    tag_129:\n        /* \"#utility.yul\":5590:5625   */\n      swap1\n      pop\n        /* \"#utility.yul\":5580:5631   */\n      swap2\n      swap1\n      pop\n      jump\t// out\n        /* \"#utility.yul\":5637:5714   */\n    tag_87:\n        /* \"#utility.yul\":5674:5681   */\n      0x00\n        /* \"#utility.yul\":5703:5708   */\n      dup2\n        /* \"#utility.yul\":5692:5708   */\n      swap1\n      pop\n        /* \"#utility.yul\":5682:5714   */\n      swap2\n      swap1\n      pop\n      jump\t// out\n        /* \"#utility.yul\":5720:5846   */\n    tag_130:\n        /* \"#utility.yul\":5757:5764   */\n      0x00\n        /* \"#utility.yul\":5797:5839   */\n      0xffffffffffffffffffffffffffffffffffffffff\n        /* \"#utility.yul\":5790:5795   */\n      dup3\n        /* \"#utility.yul\":5786:5840   */\n      and\n        /* \"#utility.yul\":5775:5840   */\n      swap1\n      pop\n        /* \"#utility.yul\":5765:5846   */\n      swap2\n      swap1\n      pop\n      jump\t// out\n        /* \"#utility.yul\":5852:5929   */\n    tag_103:\n        /* \"#utility.yul\":5889:5896   */\n      0x00\n        /* \"#utility.yul\":5918:5923   */\n      dup2\n        /* \"#utility.yul\":5907:5923   */\n      swap1\n      pop\n        /* \"#utility.yul\":5897:5929   */\n      swap2\n      swap1\n      pop\n      jump\t// out\n        /* \"#utility.yul\":5935:6089   */\n    tag_59:\n        /* \"#utility.yul\":6019:6025   */\n      dup3\n        /* \"#utility.yul\":6014:6017   */\n      dup2\n        /* \"#utility.yul\":6009:6012   */\n      dup4\n        /* \"#utility.yul\":5996:6026   */\n      calldatacopy\n        /* \"#utility.yul\":6081:6082   */\n      0x00\n        /* \"#utility.yul\":6072:6078   */\n      dup4\n        /* \"#utility.yul\":6067:6070   */\n      dup4\n        /* \"#utility.yul\":6063:6079   */\n      add\n        /* \"#utility.yul\":6056:6083   */\n      mstore\n        /* \"#utility.yul\":5986:6089   */\n      pop\n      pop\n      pop\n      jump\t// out\n        /* \"#utility.yul\":6095:6415   */\n    tag_40:\n        /* \"#utility.yul\":6139:6145   */\n      0x00\n        /* \"#utility.yul\":6176:6177   */\n      0x02\n        /* \"#utility.yul\":6170:6174   */\n      dup3\n        /* \"#utility.yul\":6166:6178   */\n      div\n        /* \"#utility.yul\":6156:6178   */\n      swap1\n      pop\n        /* \"#utility.yul\":6223:6224   */\n      0x01\n        /* \"#utility.yul\":6217:6221   */\n      dup3\n        /* \"#utility.yul\":6213:6225   */\n      and\n        /* \"#utility.yul\":6244:6262   */\n      dup1\n        /* \"#utility.yul\":6234:6236   */\n      tag_136\n      jumpi\n        /* \"#utility.yul\":6300:6304   */\n      0x7f\n        /* \"#utility.yul\":6292:6298   */\n      dup3\n        /* \"#utility.yul\":6288:6305   */\n      and\n        /* \"#utility.yul\":6278:6305   */\n      swap2\n      pop\n        /* \"#utility.yul\":6234:6236   */\n    tag_136:\n        /* \"#utility.yul\":6362:6364   */\n      0x20\n        /* \"#utility.yul\":6354:6360   */\n      dup3\n        /* \"#utility.yul\":6351:6365   */\n      lt\n        /* \"#utility.yul\":6331:6349   */\n      dup2\n        /* \"#utility.yul\":6328:6366   */\n      eq\n        /* \"#utility.yul\":6325:6327   */\n      iszero\n      tag_137\n      jumpi\n        /* \"#utility.yul\":6381:6399   */\n      tag_138\n      tag_139\n      jump\t// in\n    tag_138:\n        /* \"#utility.yul\":6325:6327   */\n    tag_137:\n        /* \"#utility.yul\":6146:6415   */\n      pop\n      swap2\n      swap1\n      pop\n      jump\t// out\n        /* \"#utility.yul\":6421:6702   */\n    tag_119:\n        /* \"#utility.yul\":6504:6531   */\n      tag_141\n        /* \"#utility.yul\":6526:6530   */\n      dup3\n        /* \"#utility.yul\":6504:6531   */\n      tag_126\n      jump\t// in\n    tag_141:\n        /* \"#utility.yul\":6496:6502   */\n      dup2\n        /* \"#utility.yul\":6492:6532   */\n      add\n        /* \"#utility.yul\":6634:6640   */\n      dup2\n        /* \"#utility.yul\":6622:6632   */\n      dup2\n        /* \"#utility.yul\":6619:6641   */\n      lt\n        /* \"#utility.yul\":6598:6616   */\n      0xffffffffffffffff\n        /* \"#utility.yul\":6586:6596   */\n      dup3\n        /* \"#utility.yul\":6583:6617   */\n      gt\n        /* \"#utility.yul\":6580:6642   */\n      or\n        /* \"#utility.yul\":6577:6579   */\n      iszero\n      tag_142\n      jumpi\n        /* \"#utility.yul\":6645:6663   */\n      tag_143\n      tag_124\n      jump\t// in\n    tag_143:\n        /* \"#utility.yul\":6577:6579   */\n    tag_142:\n        /* \"#utility.yul\":6685:6695   */\n      dup1\n        /* \"#utility.yul\":6681:6683   */\n      0x40\n        /* \"#utility.yul\":6674:6696   */\n      mstore\n        /* \"#utility.yul\":6464:6702   */\n      pop\n      pop\n      pop\n      jump\t// out\n        /* \"#utility.yul\":6708:6787   */\n    tag_104:\n        /* \"#utility.yul\":6747:6754   */\n      0x00\n        /* \"#utility.yul\":6776:6781   */\n      dup2\n        /* \"#utility.yul\":6765:6781   */\n      swap1\n      pop\n        /* \"#utility.yul\":6755:6787   */\n      swap2\n      swap1\n      pop\n      jump\t// out\n        /* \"#utility.yul\":6793:6973   */\n    tag_139:\n        /* \"#utility.yul\":6841:6918   */\n      0x4e487b7100000000000000000000000000000000000000000000000000000000\n        /* \"#utility.yul\":6838:6839   */\n      0x00\n        /* \"#utility.yul\":6831:6919   */\n      mstore\n        /* \"#utility.yul\":6938:6942   */\n      0x22\n        /* \"#utility.yul\":6935:6936   */\n      0x04\n        /* \"#utility.yul\":6928:6943   */\n      mstore\n        /* \"#utility.yul\":6962:6966   */\n      0x24\n        /* \"#utility.yul\":6959:6960   */\n      0x00\n        /* \"#utility.yul\":6952:6967   */\n      revert\n        /* \"#utility.yul\":6979:7159   */\n    tag_124:\n        /* \"#utility.yul\":7027:7104   */\n      0x4e487b7100000000000000000000000000000000000000000000000000000000\n        /* \"#utility.yul\":7024:7025   */\n      0x00\n        /* \"#utility.yul\":7017:7105   */\n      mstore\n        /* \"#utility.yul\":7124:7128   */\n      0x41\n        /* \"#utility.yul\":7121:7122   */\n      0x04\n        /* \"#utility.yul\":7114:7129   */\n      mstore\n        /* \"#utility.yul\":7148:7152   */\n      0x24\n        /* \"#utility.yul\":7145:7146   */\n      0x00\n        /* \"#utility.yul\":7138:7153   */\n      revert\n        /* \"#utility.yul\":7165:7267   */\n    tag_126:\n        /* \"#utility.yul\":7206:7212   */\n      0x00\n        /* \"#utility.yul\":7257:7259   */\n      0x1f\n        /* \"#utility.yul\":7253:7260   */\n      not\n        /* \"#utility.yul\":7248:7250   */\n      0x1f\n        /* \"#utility.yul\":7241:7246   */\n      dup4\n        /* \"#utility.yul\":7237:7251   */\n      add\n        /* \"#utility.yul\":7233:7261   */\n      and\n        /* \"#utility.yul\":7223:7261   */\n      swap1\n      pop\n        /* \"#utility.yul\":7213:7267   */\n      swap2\n      swap1\n      pop\n      jump\t// out\n        /* \"#utility.yul\":7273:7501   */\n    tag_93:\n        /* \"#utility.yul\":7413:7447   */\n      0x536f6c6f2070756564657320636f6e73656775697220756e20706f6b656d6f6e\n        /* \"#utility.yul\":7409:7410   */\n      0x00\n        /* \"#utility.yul\":7401:7407   */\n      dup3\n        /* \"#utility.yul\":7397:7411   */\n      add\n        /* \"#utility.yul\":7390:7448   */\n      mstore\n        /* \"#utility.yul\":7482:7493   */\n      0x20636164612076657a0000000000000000000000000000000000000000000000\n        /* \"#utility.yul\":7477:7479   */\n      0x20\n        /* \"#utility.yul\":7469:7475   */\n      dup3\n        /* \"#utility.yul\":7465:7480   */\n      add\n        /* \"#utility.yul\":7458:7494   */\n      mstore\n        /* \"#utility.yul\":7379:7501   */\n      pop\n      jump\t// out\n        /* \"#utility.yul\":7507:7758   */\n    tag_98:\n        /* \"#utility.yul\":7647:7681   */\n      0x4e6f207469656e6573207065726d69736f732070617261206361707475726172\n        /* \"#utility.yul\":7643:7644   */\n      0x00\n        /* \"#utility.yul\":7635:7641   */\n      dup3\n        /* \"#utility.yul\":7631:7645   */\n      add\n        /* \"#utility.yul\":7624:7682   */\n      mstore\n        /* \"#utility.yul\":7716:7750   */\n      0x206573746f7320706f6b656d6f6e2070617261206573746120506f6b65646578\n        /* \"#utility.yul\":7711:7713   */\n      0x20\n        /* \"#utility.yul\":7703:7709   */\n      dup3\n        /* \"#utility.yul\":7699:7714   */\n      add\n        /* \"#utility.yul\":7692:7751   */\n      mstore\n        /* \"#utility.yul\":7613:7758   */\n      pop\n      jump\t// out\n        /* \"#utility.yul\":7764:7886   */\n    tag_67:\n        /* \"#utility.yul\":7837:7861   */\n      tag_151\n        /* \"#utility.yul\":7855:7860   */\n      dup2\n        /* \"#utility.yul\":7837:7861   */\n      tag_103\n      jump\t// in\n    tag_151:\n        /* \"#utility.yul\":7830:7835   */\n      dup2\n        /* \"#utility.yul\":7827:7862   */\n      eq\n        /* \"#utility.yul\":7817:7819   */\n      tag_152\n      jumpi\n        /* \"#utility.yul\":7876:7877   */\n      0x00\n        /* \"#utility.yul\":7873:7874   */\n      dup1\n        /* \"#utility.yul\":7866:7878   */\n      revert\n        /* \"#utility.yul\":7817:7819   */\n    tag_152:\n        /* \"#utility.yul\":7807:7886   */\n      pop\n      jump\t// out\n\n    auxdata: 0xa2646970667358221220dea951bde304a097c71b5a6acb0c0dc1dac10da02bff3c56b5a9f5da78110b3764736f6c63430008040033\n}\n",
				"bytecode": {
					"linkReferences": {},
					"object": "608060405234801561001057600080fd5b5033600160006101000a81548173ffffffffffffffffffffffffffffffffffffffff021916908373ffffffffffffffffffffffffffffffffffffffff160217905550610812806100616000396000f3fe608060405234801561001057600080fd5b50600436106100415760003560e01c8063359468da146100465780638da5cb5b14610062578063bda0284214610080575b600080fd5b610060600480360381019061005b91906103af565b6100b0565b005b61006a610105565b6040516100779190610519565b60405180910390f35b61009a6004803603810190610095919061045a565b61012b565b6040516100a79190610534565b60405180910390f35b60028111156100f4576040517f08c379a00000000000000000000000000000000000000000000000000000000081526004016100eb9061054f565b60405180910390fd5b6100ff8484846101eb565b50505050565b600160009054906101000a900473ffffffffffffffffffffffffffffffffffffffff1681565b60003373ffffffffffffffffffffffffffffffffffffffff16600160009054906101000a900473ffffffffffffffffffffffffffffffffffffffff1673ffffffffffffffffffffffffffffffffffffffff16146101bd576040517f08c379a00000000000000000000000000000000000000000000000000000000081526004016101b49061056f565b60405180910390fd5b816040516020016101ce91906104fe565b604051602081830303815290604052805190602001209050919050565b60006040518060600160405280858152602001848152602001838152509080600181540180825580915050600190039060005260206000209060030201600090919091909150600082015181600001908051906020019061024d92919061028f565b50602082015181600101908051906020019061026a92919061028f565b50604082015181600201908051906020019061028792919061028f565b505050505050565b82805461029b9061064b565b90600052602060002090601f0160209004810192826102bd5760008555610304565b82601f106102d657805160ff1916838001178555610304565b82800160010185558215610304579182015b828111156103035782518255916020019190600101906102e8565b5b5090506103119190610315565b5090565b5b8082111561032e576000816000905550600101610316565b5090565b6000610345610340846105b4565b61058f565b90508281526020810184848401111561035d57600080fd5b61036884828561063c565b509392505050565b600082601f83011261038157600080fd5b8135610391848260208601610332565b91505092915050565b6000813590506103a9816107c5565b92915050565b600080600080608085870312156103c557600080fd5b600085013567ffffffffffffffff8111156103df57600080fd5b6103eb87828801610370565b945050602085013567ffffffffffffffff81111561040857600080fd5b61041487828801610370565b935050604085013567ffffffffffffffff81111561043157600080fd5b61043d87828801610370565b925050606061044e8782880161039a565b91505092959194509250565b60006020828403121561046c57600080fd5b600061047a8482850161039a565b91505092915050565b61048c816105f6565b82525050565b61049b81610608565b82525050565b60006104ae6029836105e5565b91506104b982610727565b604082019050919050565b60006104d16040836105e5565b91506104dc82610776565b604082019050919050565b6104f86104f382610632565b6106ae565b82525050565b600061050a82846104e7565b60208201915081905092915050565b600060208201905061052e6000830184610483565b92915050565b60006020820190506105496000830184610492565b92915050565b60006020820190508181036000830152610568816104a1565b9050919050565b60006020820190508181036000830152610588816104c4565b9050919050565b60006105996105aa565b90506105a5828261067d565b919050565b6000604051905090565b600067ffffffffffffffff8211156105cf576105ce6106e7565b5b6105d882610716565b9050602081019050919050565b600082825260208201905092915050565b600061060182610612565b9050919050565b6000819050919050565b600073ffffffffffffffffffffffffffffffffffffffff82169050919050565b6000819050919050565b82818337600083830152505050565b6000600282049050600182168061066357607f821691505b60208210811415610677576106766106b8565b5b50919050565b61068682610716565b810181811067ffffffffffffffff821117156106a5576106a46106e7565b5b80604052505050565b6000819050919050565b7f4e487b7100000000000000000000000000000000000000000000000000000000600052602260045260246000fd5b7f4e487b7100000000000000000000000000000000000000000000000000000000600052604160045260246000fd5b6000601f19601f8301169050919050565b7f536f6c6f2070756564657320636f6e73656775697220756e20706f6b656d6f6e60008201527f20636164612076657a0000000000000000000000000000000000000000000000602082015250565b7f4e6f207469656e6573207065726d69736f73207061726120636170747572617260008201527f206573746f7320706f6b656d6f6e2070617261206573746120506f6b65646578602082015250565b6107ce81610632565b81146107d957600080fd5b5056fea2646970667358221220dea951bde304a097c71b5a6acb0c0dc1dac10da02bff3c56b5a9f5da78110b3764736f6c63430008040033",
					"opcodes": "PUSH1 0x80 PUSH1 0x40 MSTORE CALLVALUE DUP1 ISZERO PUSH2 0x10 JUMPI PUSH1 0x0 DUP1 REVERT JUMPDEST POP CALLER PUSH1 0x1 PUSH1 0x0 PUSH2 0x100 EXP DUP2 SLOAD DUP2 PUSH20 0xFFFFFFFFFFFFFFFFFFFFFFFFFFFFFFFFFFFFFFFF MUL NOT AND SWAP1 DUP4 PUSH20 0xFFFFFFFFFFFFFFFFFFFFFFFFFFFFFFFFFFFFFFFF AND MUL OR SWAP1 SSTORE POP PUSH2 0x812 DUP1 PUSH2 0x61 PUSH1 0x0 CODECOPY PUSH1 0x0 RETURN INVALID PUSH1 0x80 PUSH1 0x40 MSTORE CALLVALUE DUP1 ISZERO PUSH2 0x10 JUMPI PUSH1 0x0 DUP1 REVERT JUMPDEST POP PUSH1 0x4 CALLDATASIZE LT PUSH2 0x41 JUMPI PUSH1 0x0 CALLDATALOAD PUSH1 0xE0 SHR DUP1 PUSH4 0x359468DA EQ PUSH2 0x46 JUMPI DUP1 PUSH4 0x8DA5CB5B EQ PUSH2 0x62 JUMPI DUP1 PUSH4 0xBDA02842 EQ PUSH2 0x80 JUMPI JUMPDEST PUSH1 0x0 DUP1 REVERT JUMPDEST PUSH2 0x60 PUSH1 0x4 DUP1 CALLDATASIZE SUB DUP2 ADD SWAP1 PUSH2 0x5B SWAP2 SWAP1 PUSH2 0x3AF JUMP JUMPDEST PUSH2 0xB0 JUMP JUMPDEST STOP JUMPDEST PUSH2 0x6A PUSH2 0x105 JUMP JUMPDEST PUSH1 0x40 MLOAD PUSH2 0x77 SWAP2 SWAP1 PUSH2 0x519 JUMP JUMPDEST PUSH1 0x40 MLOAD DUP1 SWAP2 SUB SWAP1 RETURN JUMPDEST PUSH2 0x9A PUSH1 0x4 DUP1 CALLDATASIZE SUB DUP2 ADD SWAP1 PUSH2 0x95 SWAP2 SWAP1 PUSH2 0x45A JUMP JUMPDEST PUSH2 0x12B JUMP JUMPDEST PUSH1 0x40 MLOAD PUSH2 0xA7 SWAP2 SWAP1 PUSH2 0x534 JUMP JUMPDEST PUSH1 0x40 MLOAD DUP1 SWAP2 SUB SWAP1 RETURN JUMPDEST PUSH1 0x2 DUP2 GT ISZERO PUSH2 0xF4 JUMPI PUSH1 0x40 MLOAD PUSH32 0x8C379A000000000000000000000000000000000000000000000000000000000 DUP2 MSTORE PUSH1 0x4 ADD PUSH2 0xEB SWAP1 PUSH2 0x54F JUMP JUMPDEST PUSH1 0x40 MLOAD DUP1 SWAP2 SUB SWAP1 REVERT JUMPDEST PUSH2 0xFF DUP5 DUP5 DUP5 PUSH2 0x1EB JUMP JUMPDEST POP POP POP POP JUMP JUMPDEST PUSH1 0x1 PUSH1 0x0 SWAP1 SLOAD SWAP1 PUSH2 0x100 EXP SWAP1 DIV PUSH20 0xFFFFFFFFFFFFFFFFFFFFFFFFFFFFFFFFFFFFFFFF AND DUP2 JUMP JUMPDEST PUSH1 0x0 CALLER PUSH20 0xFFFFFFFFFFFFFFFFFFFFFFFFFFFFFFFFFFFFFFFF AND PUSH1 0x1 PUSH1 0x0 SWAP1 SLOAD SWAP1 PUSH2 0x100 EXP SWAP1 DIV PUSH20 0xFFFFFFFFFFFFFFFFFFFFFFFFFFFFFFFFFFFFFFFF AND PUSH20 0xFFFFFFFFFFFFFFFFFFFFFFFFFFFFFFFFFFFFFFFF AND EQ PUSH2 0x1BD JUMPI PUSH1 0x40 MLOAD PUSH32 0x8C379A000000000000000000000000000000000000000000000000000000000 DUP2 MSTORE PUSH1 0x4 ADD PUSH2 0x1B4 SWAP1 PUSH2 0x56F JUMP JUMPDEST PUSH1 0x40 MLOAD DUP1 SWAP2 SUB SWAP1 REVERT JUMPDEST DUP2 PUSH1 0x40 MLOAD PUSH1 0x20 ADD PUSH2 0x1CE SWAP2 SWAP1 PUSH2 0x4FE JUMP JUMPDEST PUSH1 0x40 MLOAD PUSH1 0x20 DUP2 DUP4 SUB SUB DUP2 MSTORE SWAP1 PUSH1 0x40 MSTORE DUP1 MLOAD SWAP1 PUSH1 0x20 ADD KECCAK256 SWAP1 POP SWAP2 SWAP1 POP JUMP JUMPDEST PUSH1 0x0 PUSH1 0x40 MLOAD DUP1 PUSH1 0x60 ADD PUSH1 0x40 MSTORE DUP1 DUP6 DUP2 MSTORE PUSH1 0x20 ADD DUP5 DUP2 MSTORE PUSH1 0x20 ADD DUP4 DUP2 MSTORE POP SWAP1 DUP1 PUSH1 0x1 DUP2 SLOAD ADD DUP1 DUP3 SSTORE DUP1 SWAP2 POP POP PUSH1 0x1 SWAP1 SUB SWAP1 PUSH1 0x0 MSTORE PUSH1 0x20 PUSH1 0x0 KECCAK256 SWAP1 PUSH1 0x3 MUL ADD PUSH1 0x0 SWAP1 SWAP2 SWAP1 SWAP2 SWAP1 SWAP2 POP PUSH1 0x0 DUP3 ADD MLOAD DUP2 PUSH1 0x0 ADD SWAP1 DUP1 MLOAD SWAP1 PUSH1 0x20 ADD SWAP1 PUSH2 0x24D SWAP3 SWAP2 SWAP1 PUSH2 0x28F JUMP JUMPDEST POP PUSH1 0x20 DUP3 ADD MLOAD DUP2 PUSH1 0x1 ADD SWAP1 DUP1 MLOAD SWAP1 PUSH1 0x20 ADD SWAP1 PUSH2 0x26A SWAP3 SWAP2 SWAP1 PUSH2 0x28F JUMP JUMPDEST POP PUSH1 0x40 DUP3 ADD MLOAD DUP2 PUSH1 0x2 ADD SWAP1 DUP1 MLOAD SWAP1 PUSH1 0x20 ADD SWAP1 PUSH2 0x287 SWAP3 SWAP2 SWAP1 PUSH2 0x28F JUMP JUMPDEST POP POP POP POP POP POP JUMP JUMPDEST DUP3 DUP1 SLOAD PUSH2 0x29B SWAP1 PUSH2 0x64B JUMP JUMPDEST SWAP1 PUSH1 0x0 MSTORE PUSH1 0x20 PUSH1 0x0 KECCAK256 SWAP1 PUSH1 0x1F ADD PUSH1 0x20 SWAP1 DIV DUP2 ADD SWAP3 DUP3 PUSH2 0x2BD JUMPI PUSH1 0x0 DUP6 SSTORE PUSH2 0x304 JUMP JUMPDEST DUP3 PUSH1 0x1F LT PUSH2 0x2D6 JUMPI DUP1 MLOAD PUSH1 0xFF NOT AND DUP4 DUP1 ADD OR DUP6 SSTORE PUSH2 0x304 JUMP JUMPDEST DUP3 DUP1 ADD PUSH1 0x1 ADD DUP6 SSTORE DUP3 ISZERO PUSH2 0x304 JUMPI SWAP2 DUP3 ADD JUMPDEST DUP3 DUP2 GT ISZERO PUSH2 0x303 JUMPI DUP3 MLOAD DUP3 SSTORE SWAP2 PUSH1 0x20 ADD SWAP2 SWAP1 PUSH1 0x1 ADD SWAP1 PUSH2 0x2E8 JUMP JUMPDEST JUMPDEST POP SWAP1 POP PUSH2 0x311 SWAP2 SWAP1 PUSH2 0x315 JUMP JUMPDEST POP SWAP1 JUMP JUMPDEST JUMPDEST DUP1 DUP3 GT ISZERO PUSH2 0x32E JUMPI PUSH1 0x0 DUP2 PUSH1 0x0 SWAP1 SSTORE POP PUSH1 0x1 ADD PUSH2 0x316 JUMP JUMPDEST POP SWAP1 JUMP JUMPDEST PUSH1 0x0 PUSH2 0x345 PUSH2 0x340 DUP5 PUSH2 0x5B4 JUMP JUMPDEST PUSH2 0x58F JUMP JUMPDEST SWAP1 POP DUP3 DUP2 MSTORE PUSH1 0x20 DUP2 ADD DUP5 DUP5 DUP5 ADD GT ISZERO PUSH2 0x35D JUMPI PUSH1 0x0 DUP1 REVERT JUMPDEST PUSH2 0x368 DUP5 DUP3 DUP6 PUSH2 0x63C JUMP JUMPDEST POP SWAP4 SWAP3 POP POP POP JUMP JUMPDEST PUSH1 0x0 DUP3 PUSH1 0x1F DUP4 ADD SLT PUSH2 0x381 JUMPI PUSH1 0x0 DUP1 REVERT JUMPDEST DUP2 CALLDATALOAD PUSH2 0x391 DUP5 DUP3 PUSH1 0x20 DUP7 ADD PUSH2 0x332 JUMP JUMPDEST SWAP2 POP POP SWAP3 SWAP2 POP POP JUMP JUMPDEST PUSH1 0x0 DUP2 CALLDATALOAD SWAP1 POP PUSH2 0x3A9 DUP2 PUSH2 0x7C5 JUMP JUMPDEST SWAP3 SWAP2 POP POP JUMP JUMPDEST PUSH1 0x0 DUP1 PUSH1 0x0 DUP1 PUSH1 0x80 DUP6 DUP8 SUB SLT ISZERO PUSH2 0x3C5 JUMPI PUSH1 0x0 DUP1 REVERT JUMPDEST PUSH1 0x0 DUP6 ADD CALLDATALOAD PUSH8 0xFFFFFFFFFFFFFFFF DUP2 GT ISZERO PUSH2 0x3DF JUMPI PUSH1 0x0 DUP1 REVERT JUMPDEST PUSH2 0x3EB DUP8 DUP3 DUP9 ADD PUSH2 0x370 JUMP JUMPDEST SWAP5 POP POP PUSH1 0x20 DUP6 ADD CALLDATALOAD PUSH8 0xFFFFFFFFFFFFFFFF DUP2 GT ISZERO PUSH2 0x408 JUMPI PUSH1 0x0 DUP1 REVERT JUMPDEST PUSH2 0x414 DUP8 DUP3 DUP9 ADD PUSH2 0x370 JUMP JUMPDEST SWAP4 POP POP PUSH1 0x40 DUP6 ADD CALLDATALOAD PUSH8 0xFFFFFFFFFFFFFFFF DUP2 GT ISZERO PUSH2 0x431 JUMPI PUSH1 0x0 DUP1 REVERT JUMPDEST PUSH2 0x43D DUP8 DUP3 DUP9 ADD PUSH2 0x370 JUMP JUMPDEST SWAP3 POP POP PUSH1 0x60 PUSH2 0x44E DUP8 DUP3 DUP9 ADD PUSH2 0x39A JUMP JUMPDEST SWAP2 POP POP SWAP3 SWAP6 SWAP2 SWAP5 POP SWAP3 POP JUMP JUMPDEST PUSH1 0x0 PUSH1 0x20 DUP3 DUP5 SUB SLT ISZERO PUSH2 0x46C JUMPI PUSH1 0x0 DUP1 REVERT JUMPDEST PUSH1 0x0 PUSH2 0x47A DUP5 DUP3 DUP6 ADD PUSH2 0x39A JUMP JUMPDEST SWAP2 POP POP SWAP3 SWAP2 POP POP JUMP JUMPDEST PUSH2 0x48C DUP2 PUSH2 0x5F6 JUMP JUMPDEST DUP3 MSTORE POP POP JUMP JUMPDEST PUSH2 0x49B DUP2 PUSH2 0x608 JUMP JUMPDEST DUP3 MSTORE POP POP JUMP JUMPDEST PUSH1 0x0 PUSH2 0x4AE PUSH1 0x29 DUP4 PUSH2 0x5E5 JUMP JUMPDEST SWAP2 POP PUSH2 0x4B9 DUP3 PUSH2 0x727 JUMP JUMPDEST PUSH1 0x40 DUP3 ADD SWAP1 POP SWAP2 SWAP1 POP JUMP JUMPDEST PUSH1 0x0 PUSH2 0x4D1 PUSH1 0x40 DUP4 PUSH2 0x5E5 JUMP JUMPDEST SWAP2 POP PUSH2 0x4DC DUP3 PUSH2 0x776 JUMP JUMPDEST PUSH1 0x40 DUP3 ADD SWAP1 POP SWAP2 SWAP1 POP JUMP JUMPDEST PUSH2 0x4F8 PUSH2 0x4F3 DUP3 PUSH2 0x632 JUMP JUMPDEST PUSH2 0x6AE JUMP JUMPDEST DUP3 MSTORE POP POP JUMP JUMPDEST PUSH1 0x0 PUSH2 0x50A DUP3 DUP5 PUSH2 0x4E7 JUMP JUMPDEST PUSH1 0x20 DUP3 ADD SWAP2 POP DUP2 SWAP1 POP SWAP3 SWAP2 POP POP JUMP JUMPDEST PUSH1 0x0 PUSH1 0x20 DUP3 ADD SWAP1 POP PUSH2 0x52E PUSH1 0x0 DUP4 ADD DUP5 PUSH2 0x483 JUMP JUMPDEST SWAP3 SWAP2 POP POP JUMP JUMPDEST PUSH1 0x0 PUSH1 0x20 DUP3 ADD SWAP1 POP PUSH2 0x549 PUSH1 0x0 DUP4 ADD DUP5 PUSH2 0x492 JUMP JUMPDEST SWAP3 SWAP2 POP POP JUMP JUMPDEST PUSH1 0x0 PUSH1 0x20 DUP3 ADD SWAP1 POP DUP2 DUP2 SUB PUSH1 0x0 DUP4 ADD MSTORE PUSH2 0x568 DUP2 PUSH2 0x4A1 JUMP JUMPDEST SWAP1 POP SWAP2 SWAP1 POP JUMP JUMPDEST PUSH1 0x0 PUSH1 0x20 DUP3 ADD SWAP1 POP DUP2 DUP2 SUB PUSH1 0x0 DUP4 ADD MSTORE PUSH2 0x588 DUP2 PUSH2 0x4C4 JUMP JUMPDEST SWAP1 POP SWAP2 SWAP1 POP JUMP JUMPDEST PUSH1 0x0 PUSH2 0x599 PUSH2 0x5AA JUMP JUMPDEST SWAP1 POP PUSH2 0x5A5 DUP3 DUP3 PUSH2 0x67D JUMP JUMPDEST SWAP2 SWAP1 POP JUMP JUMPDEST PUSH1 0x0 PUSH1 0x40 MLOAD SWAP1 POP SWAP1 JUMP JUMPDEST PUSH1 0x0 PUSH8 0xFFFFFFFFFFFFFFFF DUP3 GT ISZERO PUSH2 0x5CF JUMPI PUSH2 0x5CE PUSH2 0x6E7 JUMP JUMPDEST JUMPDEST PUSH2 0x5D8 DUP3 PUSH2 0x716 JUMP JUMPDEST SWAP1 POP PUSH1 0x20 DUP2 ADD SWAP1 POP SWAP2 SWAP1 POP JUMP JUMPDEST PUSH1 0x0 DUP3 DUP3 MSTORE PUSH1 0x20 DUP3 ADD SWAP1 POP SWAP3 SWAP2 POP POP JUMP JUMPDEST PUSH1 0x0 PUSH2 0x601 DUP3 PUSH2 0x612 JUMP JUMPDEST SWAP1 POP SWAP2 SWAP1 POP JUMP JUMPDEST PUSH1 0x0 DUP2 SWAP1 POP SWAP2 SWAP1 POP JUMP JUMPDEST PUSH1 0x0 PUSH20 0xFFFFFFFFFFFFFFFFFFFFFFFFFFFFFFFFFFFFFFFF DUP3 AND SWAP1 POP SWAP2 SWAP1 POP JUMP JUMPDEST PUSH1 0x0 DUP2 SWAP1 POP SWAP2 SWAP1 POP JUMP JUMPDEST DUP3 DUP2 DUP4 CALLDATACOPY PUSH1 0x0 DUP4 DUP4 ADD MSTORE POP POP POP JUMP JUMPDEST PUSH1 0x0 PUSH1 0x2 DUP3 DIV SWAP1 POP PUSH1 0x1 DUP3 AND DUP1 PUSH2 0x663 JUMPI PUSH1 0x7F DUP3 AND SWAP2 POP JUMPDEST PUSH1 0x20 DUP3 LT DUP2 EQ ISZERO PUSH2 0x677 JUMPI PUSH2 0x676 PUSH2 0x6B8 JUMP JUMPDEST JUMPDEST POP SWAP2 SWAP1 POP JUMP JUMPDEST PUSH2 0x686 DUP3 PUSH2 0x716 JUMP JUMPDEST DUP2 ADD DUP2 DUP2 LT PUSH8 0xFFFFFFFFFFFFFFFF DUP3 GT OR ISZERO PUSH2 0x6A5 JUMPI PUSH2 0x6A4 PUSH2 0x6E7 JUMP JUMPDEST JUMPDEST DUP1 PUSH1 0x40 MSTORE POP POP POP JUMP JUMPDEST PUSH1 0x0 DUP2 SWAP1 POP SWAP2 SWAP1 POP JUMP JUMPDEST PUSH32 0x4E487B7100000000000000000000000000000000000000000000000000000000 PUSH1 0x0 MSTORE PUSH1 0x22 PUSH1 0x4 MSTORE PUSH1 0x24 PUSH1 0x0 REVERT JUMPDEST PUSH32 0x4E487B7100000000000000000000000000000000000000000000000000000000 PUSH1 0x0 MSTORE PUSH1 0x41 PUSH1 0x4 MSTORE PUSH1 0x24 PUSH1 0x0 REVERT JUMPDEST PUSH1 0x0 PUSH1 0x1F NOT PUSH1 0x1F DUP4 ADD AND SWAP1 POP SWAP2 SWAP1 POP JUMP JUMPDEST PUSH32 0x536F6C6F2070756564657320636F6E73656775697220756E20706F6B656D6F6E PUSH1 0x0 DUP3 ADD MSTORE PUSH32 0x20636164612076657A0000000000000000000000000000000000000000000000 PUSH1 0x20 DUP3 ADD MSTORE POP JUMP JUMPDEST PUSH32 0x4E6F207469656E6573207065726D69736F732070617261206361707475726172 PUSH1 0x0 DUP3 ADD MSTORE PUSH32 0x206573746F7320706F6B656D6F6E2070617261206573746120506F6B65646578 PUSH1 0x20 DUP3 ADD MSTORE POP JUMP JUMPDEST PUSH2 0x7CE DUP2 PUSH2 0x632 JUMP JUMPDEST DUP2 EQ PUSH2 0x7D9 JUMPI PUSH1 0x0 DUP1 REVERT JUMPDEST POP JUMP INVALID LOG2 PUSH5 0x6970667358 0x22 SLT KECCAK256 0xDE 0xA9 MLOAD 0xBD 0xE3 DIV LOG0 SWAP8 0xC7 SHL GAS PUSH11 0xCB0C0DC1DAC10DA02BFF3C JUMP 0xB5 0xA9 CREATE2 0xDA PUSH25 0x110B3764736F6C634300080400330000000000000000000000 "
				},
				"gasEstimates": {
					"creation": {
						"codeDepositCost": "413200",
						"executionCost": "21315",
						"totalCost": "434515"
					},
					"external": {
						"getPokemon(string,string,string,uint256)": "infinite",
						"hashPrivateNumber(uint256)": "infinite",
						"owner()": "1214"
					}
				},
				"methodIdentifiers": {
					"getPokemon(string,string,string,uint256)": "359468da",
					"hashPrivateNumber(uint256)": "bda02842",
					"owner()": "8da5cb5b"
				}
			},
			"storageLayout": {
				"storage": [
					{
						"astId": 17,
						"contract": "contracts/pokemon.sol:Entrador_pokemon",
						"label": "pokedex",
						"offset": 0,
						"slot": "0",
						"type": "t_array(t_struct(cualidades)13_storage)dyn_storage"
					},
					{
						"astId": 42,
						"contract": "contracts/pokemon.sol:Entrador_pokemon",
						"label": "owner",
						"offset": 0,
						"slot": "1",
						"type": "t_address"
					}
				],
				"types": {
					"t_address": {
						"encoding": "inplace",
						"label": "address",
						"numberOfBytes": "20"
					},
					"t_array(t_struct(cualidades)13_storage)dyn_storage": {
						"base": "t_struct(cualidades)13_storage",
						"encoding": "dynamic_array",
						"label": "struct Pokemon.cualidades[]",
						"numberOfBytes": "32"
					},
					"t_string_storage": {
						"encoding": "bytes",
						"label": "string",
						"numberOfBytes": "32"
					},
					"t_struct(cualidades)13_storage": {
						"encoding": "inplace",
						"label": "struct Pokemon.cualidades",
						"members": [
							{
								"astId": 8,
								"contract": "contracts/pokemon.sol:Entrador_pokemon",
								"label": "name",
								"offset": 0,
								"slot": "0",
								"type": "t_string_storage"
							},
							{
								"astId": 10,
								"contract": "contracts/pokemon.sol:Entrador_pokemon",
								"label": "tipo_pokemon",
								"offset": 0,
								"slot": "1",
								"type": "t_string_storage"
							},
							{
								"astId": 12,
								"contract": "contracts/pokemon.sol:Entrador_pokemon",
								"label": "ataque",
								"offset": 0,
								"slot": "2",
								"type": "t_string_storage"
							}
						],
						"numberOfBytes": "96"
					}
				}
			},
			"userdoc": {
				"kind": "user",
				"methods": {},
				"version": 1
			}
		}
	}
}