{
	"contracts/pokemon.sol": {
		"Entrador_pokemon": {
			"abi": [
				{
					"inputs": [],
					"stateMutability": "nonpayable",
					"type": "constructor"
				},
				{
					"inputs": [],
					"name": "getPokedex",
					"outputs": [
						{
							"components": [
								{
									"internalType": "string",
									"name": "name",
									"type": "string"
								},
								{
									"internalType": "string",
									"name": "tipo_pokemon",
									"type": "string"
								},
								{
									"internalType": "string",
									"name": "ataque",
									"type": "string"
								}
							],
							"internalType": "struct Pokemon.cualidades[]",
							"name": "",
							"type": "tuple[]"
						}
					],
					"stateMutability": "view",
					"type": "function"
				},
				{
					"inputs": [
						{
							"internalType": "uint256",
							"name": "_number",
							"type": "uint256"
						}
					],
					"name": "hashPrivateNumber",
					"outputs": [
						{
							"internalType": "bytes32",
							"name": "",
							"type": "bytes32"
						}
					],
					"stateMutability": "view",
					"type": "function"
				},
				{
					"inputs": [
						{
							"internalType": "string",
							"name": "_nombrePokemon",
							"type": "string"
						},
						{
							"internalType": "string",
							"name": "_tipo_pokemon",
							"type": "string"
						},
						{
							"internalType": "string",
							"name": "_ataque",
							"type": "string"
						}
					],
					"name": "lanzar_pokeball",
					"outputs": [],
					"stateMutability": "nonpayable",
					"type": "function"
				},
				{
					"inputs": [],
					"name": "owner",
					"outputs": [
						{
							"internalType": "address",
							"name": "",
							"type": "address"
						}
					],
					"stateMutability": "view",
					"type": "function"
				}
			],
			"devdoc": {
				"kind": "dev",
				"methods": {},
				"version": 1
			},
			"evm": {
				"assembly": "    /* \"contracts/pokemon.sol\":545:1656  contract Entrador_pokemon is Pokemon {\r... */\n  mstore(0x40, 0x80)\n    /* \"contracts/pokemon.sol\":732:784  constructor () {\r... */\n  callvalue\n  dup1\n  iszero\n  tag_1\n  jumpi\n  0x00\n  dup1\n  revert\ntag_1:\n  pop\n    /* \"contracts/pokemon.sol\":766:776  msg.sender */\n  caller\n    /* \"contracts/pokemon.sol\":758:763  owner */\n  0x01\n  0x00\n    /* \"contracts/pokemon.sol\":758:776  owner = msg.sender */\n  0x0100\n  exp\n  dup2\n  sload\n  dup2\n  0xffffffffffffffffffffffffffffffffffffffff\n  mul\n  not\n  and\n  swap1\n  dup4\n  0xffffffffffffffffffffffffffffffffffffffff\n  and\n  mul\n  or\n  swap1\n  sstore\n  pop\n    /* \"contracts/pokemon.sol\":545:1656  contract Entrador_pokemon is Pokemon {\r... */\n  dataSize(sub_0)\n  dup1\n  dataOffset(sub_0)\n  0x00\n  codecopy\n  0x00\n  return\nstop\n\nsub_0: assembly {\n        /* \"contracts/pokemon.sol\":545:1656  contract Entrador_pokemon is Pokemon {\r... */\n      mstore(0x40, 0x80)\n      callvalue\n      dup1\n      iszero\n      tag_1\n      jumpi\n      0x00\n      dup1\n      revert\n    tag_1:\n      pop\n      jumpi(tag_2, lt(calldatasize, 0x04))\n      shr(0xe0, calldataload(0x00))\n      dup1\n      0x57fb6b9c\n      eq\n      tag_3\n      jumpi\n      dup1\n      0x817ae0c2\n      eq\n      tag_4\n      jumpi\n      dup1\n      0x8da5cb5b\n      eq\n      tag_5\n      jumpi\n      dup1\n      0xbda02842\n      eq\n      tag_6\n      jumpi\n    tag_2:\n      0x00\n      dup1\n      revert\n        /* \"contracts/pokemon.sol\":844:1155  function lanzar_pokeball(string memory _nombrePokemon, string memory _tipo_pokemon, string memory _ataque) external {\r... */\n    tag_3:\n      tag_7\n      0x04\n      dup1\n      calldatasize\n      sub\n      dup2\n      add\n      swap1\n      tag_8\n      swap2\n      swap1\n      tag_9\n      jump\t// in\n    tag_8:\n      tag_10\n      jump\t// in\n    tag_7:\n      stop\n        /* \"contracts/pokemon.sol\":1555:1653  function getPokedex() public view returns (cualidades [] memory) {\r... */\n    tag_4:\n      tag_11\n      tag_12\n      jump\t// in\n    tag_11:\n      mload(0x40)\n      tag_13\n      swap2\n      swap1\n      tag_14\n      jump\t// in\n    tag_13:\n      mload(0x40)\n      dup1\n      swap2\n      sub\n      swap1\n      return\n        /* \"contracts/pokemon.sol\":654:674  address public owner */\n    tag_5:\n      tag_15\n      tag_16\n      jump\t// in\n    tag_15:\n      mload(0x40)\n      tag_17\n      swap2\n      swap1\n      tag_18\n      jump\t// in\n    tag_17:\n      mload(0x40)\n      dup1\n      swap2\n      sub\n      swap1\n      return\n        /* \"contracts/pokemon.sol\":1404:1547  function hashPrivateNumber(uint _number) public view onlyOwner returns (bytes32) {\r... */\n    tag_6:\n      tag_19\n      0x04\n      dup1\n      calldatasize\n      sub\n      dup2\n      add\n      swap1\n      tag_20\n      swap2\n      swap1\n      tag_21\n      jump\t// in\n    tag_20:\n      tag_22\n      jump\t// in\n    tag_19:\n      mload(0x40)\n      tag_23\n      swap2\n      swap1\n      tag_24\n      jump\t// in\n    tag_23:\n      mload(0x40)\n      dup1\n      swap2\n      sub\n      swap1\n      return\n        /* \"contracts/pokemon.sol\":844:1155  function lanzar_pokeball(string memory _nombrePokemon, string memory _tipo_pokemon, string memory _ataque) external {\r... */\n    tag_10:\n        /* \"contracts/pokemon.sol\":1026:1036  bytes(\" \") */\n      mload(0x40)\n      dup1\n      0x40\n      add\n      0x40\n      mstore\n      dup1\n      0x01\n      dup2\n      mstore\n      0x20\n      add\n      0x2000000000000000000000000000000000000000000000000000000000000000\n      dup2\n      mstore\n      pop\n        /* \"contracts/pokemon.sol\":1016:1037  keccak256(bytes(\" \")) */\n      dup1\n      mload\n      swap1\n      0x20\n      add\n      keccak256\n        /* \"contracts/pokemon.sol\":996:1010  _nombrePokemon */\n      dup4\n        /* \"contracts/pokemon.sol\":980:1012  keccak256(bytes(_nombrePokemon)) */\n      dup1\n      mload\n      swap1\n      0x20\n      add\n      keccak256\n        /* \"contracts/pokemon.sol\":980:1037  keccak256(bytes(_nombrePokemon)) != keccak256(bytes(\" \")) */\n      eq\n      iszero\n        /* \"contracts/pokemon.sol\":971:1074  require (keccak256(bytes(_nombrePokemon)) != keccak256(bytes(\" \")), \"Debes poner el nombre al pokemon\") */\n      tag_26\n      jumpi\n      mload(0x40)\n      0x08c379a000000000000000000000000000000000000000000000000000000000\n      dup2\n      mstore\n      0x04\n      add\n      tag_27\n      swap1\n      tag_28\n      jump\t// in\n    tag_27:\n      mload(0x40)\n      dup1\n      swap2\n      sub\n      swap1\n      revert\n    tag_26:\n        /* \"contracts/pokemon.sol\":1085:1147  capturar_nuevo_pokemon(_nombrePokemon, _tipo_pokemon, _ataque) */\n      tag_29\n        /* \"contracts/pokemon.sol\":1108:1122  _nombrePokemon */\n      dup4\n        /* \"contracts/pokemon.sol\":1124:1137  _tipo_pokemon */\n      dup4\n        /* \"contracts/pokemon.sol\":1139:1146  _ataque */\n      dup4\n        /* \"contracts/pokemon.sol\":1085:1107  capturar_nuevo_pokemon */\n      tag_30\n        /* \"contracts/pokemon.sol\":1085:1147  capturar_nuevo_pokemon(_nombrePokemon, _tipo_pokemon, _ataque) */\n      jump\t// in\n    tag_29:\n        /* \"contracts/pokemon.sol\":844:1155  function lanzar_pokeball(string memory _nombrePokemon, string memory _tipo_pokemon, string memory _ataque) external {\r... */\n      pop\n      pop\n      pop\n      jump\t// out\n        /* \"contracts/pokemon.sol\":1555:1653  function getPokedex() public view returns (cualidades [] memory) {\r... */\n    tag_12:\n        /* \"contracts/pokemon.sol\":1598:1618  cualidades [] memory */\n      0x60\n        /* \"contracts/pokemon.sol\":1638:1645  pokedex */\n      0x00\n        /* \"contracts/pokemon.sol\":1631:1645  return pokedex */\n      dup1\n      sload\n      dup1\n      0x20\n      mul\n      0x20\n      add\n      mload(0x40)\n      swap1\n      dup2\n      add\n      0x40\n      mstore\n      dup1\n      swap3\n      swap2\n      swap1\n      dup2\n      dup2\n      mstore\n      0x20\n      add\n      0x00\n      swap1\n    tag_32:\n      dup3\n      dup3\n      lt\n      iszero\n      tag_33\n      jumpi\n      dup4\n      dup3\n      swap1\n      0x00\n      mstore\n      keccak256(0x00, 0x20)\n      swap1\n      0x03\n      mul\n      add\n      mload(0x40)\n      dup1\n      0x60\n      add\n      0x40\n      mstore\n      swap1\n      dup2\n      0x00\n      dup3\n      add\n      dup1\n      sload\n      tag_35\n      swap1\n      tag_36\n      jump\t// in\n    tag_35:\n      dup1\n      0x1f\n      add\n      0x20\n      dup1\n      swap2\n      div\n      mul\n      0x20\n      add\n      mload(0x40)\n      swap1\n      dup2\n      add\n      0x40\n      mstore\n      dup1\n      swap3\n      swap2\n      swap1\n      dup2\n      dup2\n      mstore\n      0x20\n      add\n      dup3\n      dup1\n      sload\n      tag_37\n      swap1\n      tag_36\n      jump\t// in\n    tag_37:\n      dup1\n      iszero\n      tag_38\n      jumpi\n      dup1\n      0x1f\n      lt\n      tag_39\n      jumpi\n      0x0100\n      dup1\n      dup4\n      sload\n      div\n      mul\n      dup4\n      mstore\n      swap2\n      0x20\n      add\n      swap2\n      jump(tag_38)\n    tag_39:\n      dup3\n      add\n      swap2\n      swap1\n      0x00\n      mstore\n      keccak256(0x00, 0x20)\n      swap1\n    tag_40:\n      dup2\n      sload\n      dup2\n      mstore\n      swap1\n      0x01\n      add\n      swap1\n      0x20\n      add\n      dup1\n      dup4\n      gt\n      tag_40\n      jumpi\n      dup3\n      swap1\n      sub\n      0x1f\n      and\n      dup3\n      add\n      swap2\n    tag_38:\n      pop\n      pop\n      pop\n      pop\n      pop\n      dup2\n      mstore\n      0x20\n      add\n      0x01\n      dup3\n      add\n      dup1\n      sload\n      tag_41\n      swap1\n      tag_36\n      jump\t// in\n    tag_41:\n      dup1\n      0x1f\n      add\n      0x20\n      dup1\n      swap2\n      div\n      mul\n      0x20\n      add\n      mload(0x40)\n      swap1\n      dup2\n      add\n      0x40\n      mstore\n      dup1\n      swap3\n      swap2\n      swap1\n      dup2\n      dup2\n      mstore\n      0x20\n      add\n      dup3\n      dup1\n      sload\n      tag_42\n      swap1\n      tag_36\n      jump\t// in\n    tag_42:\n      dup1\n      iszero\n      tag_43\n      jumpi\n      dup1\n      0x1f\n      lt\n      tag_44\n      jumpi\n      0x0100\n      dup1\n      dup4\n      sload\n      div\n      mul\n      dup4\n      mstore\n      swap2\n      0x20\n      add\n      swap2\n      jump(tag_43)\n    tag_44:\n      dup3\n      add\n      swap2\n      swap1\n      0x00\n      mstore\n      keccak256(0x00, 0x20)\n      swap1\n    tag_45:\n      dup2\n      sload\n      dup2\n      mstore\n      swap1\n      0x01\n      add\n      swap1\n      0x20\n      add\n      dup1\n      dup4\n      gt\n      tag_45\n      jumpi\n      dup3\n      swap1\n      sub\n      0x1f\n      and\n      dup3\n      add\n      swap2\n    tag_43:\n      pop\n      pop\n      pop\n      pop\n      pop\n      dup2\n      mstore\n      0x20\n      add\n      0x02\n      dup3\n      add\n      dup1\n      sload\n      tag_46\n      swap1\n      tag_36\n      jump\t// in\n    tag_46:\n      dup1\n      0x1f\n      add\n      0x20\n      dup1\n      swap2\n      div\n      mul\n      0x20\n      add\n      mload(0x40)\n      swap1\n      dup2\n      add\n      0x40\n      mstore\n      dup1\n      swap3\n      swap2\n      swap1\n      dup2\n      dup2\n      mstore\n      0x20\n      add\n      dup3\n      dup1\n      sload\n      tag_47\n      swap1\n      tag_36\n      jump\t// in\n    tag_47:\n      dup1\n      iszero\n      tag_48\n      jumpi\n      dup1\n      0x1f\n      lt\n      tag_49\n      jumpi\n      0x0100\n      dup1\n      dup4\n      sload\n      div\n      mul\n      dup4\n      mstore\n      swap2\n      0x20\n      add\n      swap2\n      jump(tag_48)\n    tag_49:\n      dup3\n      add\n      swap2\n      swap1\n      0x00\n      mstore\n      keccak256(0x00, 0x20)\n      swap1\n    tag_50:\n      dup2\n      sload\n      dup2\n      mstore\n      swap1\n      0x01\n      add\n      swap1\n      0x20\n      add\n      dup1\n      dup4\n      gt\n      tag_50\n      jumpi\n      dup3\n      swap1\n      sub\n      0x1f\n      and\n      dup3\n      add\n      swap2\n    tag_48:\n      pop\n      pop\n      pop\n      pop\n      pop\n      dup2\n      mstore\n      pop\n      pop\n      dup2\n      mstore\n      0x20\n      add\n      swap1\n      0x01\n      add\n      swap1\n      jump(tag_32)\n    tag_33:\n      pop\n      pop\n      pop\n      pop\n      swap1\n      pop\n        /* \"contracts/pokemon.sol\":1555:1653  function getPokedex() public view returns (cualidades [] memory) {\r... */\n      swap1\n      jump\t// out\n        /* \"contracts/pokemon.sol\":654:674  address public owner */\n    tag_16:\n      0x01\n      0x00\n      swap1\n      sload\n      swap1\n      0x0100\n      exp\n      swap1\n      div\n      0xffffffffffffffffffffffffffffffffffffffff\n      and\n      dup2\n      jump\t// out\n        /* \"contracts/pokemon.sol\":1404:1547  function hashPrivateNumber(uint _number) public view onlyOwner returns (bytes32) {\r... */\n    tag_22:\n        /* \"contracts/pokemon.sol\":1476:1483  bytes32 */\n      0x00\n        /* \"contracts/pokemon.sol\":1297:1307  msg.sender */\n      caller\n        /* \"contracts/pokemon.sol\":1288:1307  owner == msg.sender */\n      0xffffffffffffffffffffffffffffffffffffffff\n      and\n        /* \"contracts/pokemon.sol\":1288:1293  owner */\n      0x01\n      0x00\n      swap1\n      sload\n      swap1\n      0x0100\n      exp\n      swap1\n      div\n      0xffffffffffffffffffffffffffffffffffffffff\n      and\n        /* \"contracts/pokemon.sol\":1288:1307  owner == msg.sender */\n      0xffffffffffffffffffffffffffffffffffffffff\n      and\n      eq\n        /* \"contracts/pokemon.sol\":1280:1376  require(owner == msg.sender, \"No tienes permisos para capturar estos pokemon para esta Pokedex\") */\n      tag_52\n      jumpi\n      mload(0x40)\n      0x08c379a000000000000000000000000000000000000000000000000000000000\n      dup2\n      mstore\n      0x04\n      add\n      tag_53\n      swap1\n      tag_54\n      jump\t// in\n    tag_53:\n      mload(0x40)\n      dup1\n      swap2\n      sub\n      swap1\n      revert\n    tag_52:\n        /* \"contracts/pokemon.sol\":1530:1537  _number */\n      dup2\n        /* \"contracts/pokemon.sol\":1513:1538  abi.encodePacked(_number) */\n      add(0x20, mload(0x40))\n      tag_56\n      swap2\n      swap1\n      tag_57\n      jump\t// in\n    tag_56:\n      mload(0x40)\n      0x20\n      dup2\n      dup4\n      sub\n      sub\n      dup2\n      mstore\n      swap1\n      0x40\n      mstore\n        /* \"contracts/pokemon.sol\":1503:1539  keccak256(abi.encodePacked(_number)) */\n      dup1\n      mload\n      swap1\n      0x20\n      add\n      keccak256\n        /* \"contracts/pokemon.sol\":1496:1539  return keccak256(abi.encodePacked(_number)) */\n      swap1\n      pop\n        /* \"contracts/pokemon.sol\":1404:1547  function hashPrivateNumber(uint _number) public view onlyOwner returns (bytes32) {\r... */\n      swap2\n      swap1\n      pop\n      jump\t// out\n        /* \"contracts/pokemon.sol\":350:538  function capturar_nuevo_pokemon(string memory _name, string memory _tipo_pokemon, string memory _ataque) internal {\r... */\n    tag_30:\n        /* \"contracts/pokemon.sol\":475:482  pokedex */\n      0x00\n        /* \"contracts/pokemon.sol\":488:529  cualidades(_name, _tipo_pokemon, _ataque) */\n      mload(0x40)\n      dup1\n      0x60\n      add\n      0x40\n      mstore\n      dup1\n        /* \"contracts/pokemon.sol\":499:504  _name */\n      dup6\n        /* \"contracts/pokemon.sol\":488:529  cualidades(_name, _tipo_pokemon, _ataque) */\n      dup2\n      mstore\n      0x20\n      add\n        /* \"contracts/pokemon.sol\":506:519  _tipo_pokemon */\n      dup5\n        /* \"contracts/pokemon.sol\":488:529  cualidades(_name, _tipo_pokemon, _ataque) */\n      dup2\n      mstore\n      0x20\n      add\n        /* \"contracts/pokemon.sol\":521:528  _ataque */\n      dup4\n        /* \"contracts/pokemon.sol\":488:529  cualidades(_name, _tipo_pokemon, _ataque) */\n      dup2\n      mstore\n      pop\n        /* \"contracts/pokemon.sol\":475:530  pokedex.push(cualidades(_name, _tipo_pokemon, _ataque)) */\n      swap1\n      dup1\n      0x01\n      dup2\n      sload\n      add\n      dup1\n      dup3\n      sstore\n      dup1\n      swap2\n      pop\n      pop\n      0x01\n      swap1\n      sub\n      swap1\n      0x00\n      mstore\n      keccak256(0x00, 0x20)\n      swap1\n      0x03\n      mul\n      add\n      0x00\n      swap1\n      swap2\n      swap1\n      swap2\n      swap1\n      swap2\n      pop\n      0x00\n      dup3\n      add\n      mload\n      dup2\n      0x00\n      add\n      swap1\n      dup1\n      mload\n      swap1\n      0x20\n      add\n      swap1\n      tag_60\n      swap3\n      swap2\n      swap1\n      tag_61\n      jump\t// in\n    tag_60:\n      pop\n      0x20\n      dup3\n      add\n      mload\n      dup2\n      0x01\n      add\n      swap1\n      dup1\n      mload\n      swap1\n      0x20\n      add\n      swap1\n      tag_62\n      swap3\n      swap2\n      swap1\n      tag_61\n      jump\t// in\n    tag_62:\n      pop\n      0x40\n      dup3\n      add\n      mload\n      dup2\n      0x02\n      add\n      swap1\n      dup1\n      mload\n      swap1\n      0x20\n      add\n      swap1\n      tag_63\n      swap3\n      swap2\n      swap1\n      tag_61\n      jump\t// in\n    tag_63:\n      pop\n      pop\n      pop\n        /* \"contracts/pokemon.sol\":350:538  function capturar_nuevo_pokemon(string memory _name, string memory _tipo_pokemon, string memory _ataque) internal {\r... */\n      pop\n      pop\n      pop\n      jump\t// out\n    tag_61:\n      dup3\n      dup1\n      sload\n      tag_64\n      swap1\n      tag_36\n      jump\t// in\n    tag_64:\n      swap1\n      0x00\n      mstore\n      keccak256(0x00, 0x20)\n      swap1\n      0x1f\n      add\n      0x20\n      swap1\n      div\n      dup2\n      add\n      swap3\n      dup3\n      tag_66\n      jumpi\n      0x00\n      dup6\n      sstore\n      jump(tag_65)\n    tag_66:\n      dup3\n      0x1f\n      lt\n      tag_67\n      jumpi\n      dup1\n      mload\n      not(0xff)\n      and\n      dup4\n      dup1\n      add\n      or\n      dup6\n      sstore\n      jump(tag_65)\n    tag_67:\n      dup3\n      dup1\n      add\n      0x01\n      add\n      dup6\n      sstore\n      dup3\n      iszero\n      tag_65\n      jumpi\n      swap2\n      dup3\n      add\n    tag_68:\n      dup3\n      dup2\n      gt\n      iszero\n      tag_69\n      jumpi\n      dup3\n      mload\n      dup3\n      sstore\n      swap2\n      0x20\n      add\n      swap2\n      swap1\n      0x01\n      add\n      swap1\n      jump(tag_68)\n    tag_69:\n    tag_65:\n      pop\n      swap1\n      pop\n      tag_70\n      swap2\n      swap1\n      tag_71\n      jump\t// in\n    tag_70:\n      pop\n      swap1\n      jump\t// out\n    tag_71:\n    tag_72:\n      dup1\n      dup3\n      gt\n      iszero\n      tag_73\n      jumpi\n      0x00\n      dup2\n      0x00\n      swap1\n      sstore\n      pop\n      0x01\n      add\n      jump(tag_72)\n    tag_73:\n      pop\n      swap1\n      jump\t// out\n        /* \"#utility.yul\":7:352   */\n    tag_75:\n        /* \"#utility.yul\":85:90   */\n      0x00\n        /* \"#utility.yul\":110:176   */\n      tag_77\n        /* \"#utility.yul\":126:175   */\n      tag_78\n        /* \"#utility.yul\":168:174   */\n      dup5\n        /* \"#utility.yul\":126:175   */\n      tag_79\n      jump\t// in\n    tag_78:\n        /* \"#utility.yul\":110:176   */\n      tag_80\n      jump\t// in\n    tag_77:\n        /* \"#utility.yul\":101:176   */\n      swap1\n      pop\n        /* \"#utility.yul\":199:205   */\n      dup3\n        /* \"#utility.yul\":192:197   */\n      dup2\n        /* \"#utility.yul\":185:206   */\n      mstore\n        /* \"#utility.yul\":237:241   */\n      0x20\n        /* \"#utility.yul\":230:235   */\n      dup2\n        /* \"#utility.yul\":226:242   */\n      add\n        /* \"#utility.yul\":275:278   */\n      dup5\n        /* \"#utility.yul\":266:272   */\n      dup5\n        /* \"#utility.yul\":261:264   */\n      dup5\n        /* \"#utility.yul\":257:273   */\n      add\n        /* \"#utility.yul\":254:279   */\n      gt\n        /* \"#utility.yul\":251:253   */\n      iszero\n      tag_81\n      jumpi\n        /* \"#utility.yul\":292:293   */\n      0x00\n        /* \"#utility.yul\":289:290   */\n      dup1\n        /* \"#utility.yul\":282:294   */\n      revert\n        /* \"#utility.yul\":251:253   */\n    tag_81:\n        /* \"#utility.yul\":305:346   */\n      tag_82\n        /* \"#utility.yul\":339:345   */\n      dup5\n        /* \"#utility.yul\":334:337   */\n      dup3\n        /* \"#utility.yul\":329:332   */\n      dup6\n        /* \"#utility.yul\":305:346   */\n      tag_83\n      jump\t// in\n    tag_82:\n        /* \"#utility.yul\":91:352   */\n      pop\n      swap4\n      swap3\n      pop\n      pop\n      pop\n      jump\t// out\n        /* \"#utility.yul\":372:645   */\n    tag_84:\n        /* \"#utility.yul\":428:433   */\n      0x00\n        /* \"#utility.yul\":477:480   */\n      dup3\n        /* \"#utility.yul\":470:474   */\n      0x1f\n        /* \"#utility.yul\":462:468   */\n      dup4\n        /* \"#utility.yul\":458:475   */\n      add\n        /* \"#utility.yul\":454:481   */\n      slt\n        /* \"#utility.yul\":444:446   */\n      tag_86\n      jumpi\n        /* \"#utility.yul\":495:496   */\n      0x00\n        /* \"#utility.yul\":492:493   */\n      dup1\n        /* \"#utility.yul\":485:497   */\n      revert\n        /* \"#utility.yul\":444:446   */\n    tag_86:\n        /* \"#utility.yul\":535:541   */\n      dup2\n        /* \"#utility.yul\":522:542   */\n      calldataload\n        /* \"#utility.yul\":560:639   */\n      tag_87\n        /* \"#utility.yul\":635:638   */\n      dup5\n        /* \"#utility.yul\":627:633   */\n      dup3\n        /* \"#utility.yul\":620:624   */\n      0x20\n        /* \"#utility.yul\":612:618   */\n      dup7\n        /* \"#utility.yul\":608:625   */\n      add\n        /* \"#utility.yul\":560:639   */\n      tag_75\n      jump\t// in\n    tag_87:\n        /* \"#utility.yul\":551:639   */\n      swap2\n      pop\n        /* \"#utility.yul\":434:645   */\n      pop\n      swap3\n      swap2\n      pop\n      pop\n      jump\t// out\n        /* \"#utility.yul\":651:790   */\n    tag_88:\n        /* \"#utility.yul\":697:702   */\n      0x00\n        /* \"#utility.yul\":735:741   */\n      dup2\n        /* \"#utility.yul\":722:742   */\n      calldataload\n        /* \"#utility.yul\":713:742   */\n      swap1\n      pop\n        /* \"#utility.yul\":751:784   */\n      tag_90\n        /* \"#utility.yul\":778:783   */\n      dup2\n        /* \"#utility.yul\":751:784   */\n      tag_91\n      jump\t// in\n    tag_90:\n        /* \"#utility.yul\":703:790   */\n      swap3\n      swap2\n      pop\n      pop\n      jump\t// out\n        /* \"#utility.yul\":796:1687   */\n    tag_9:\n        /* \"#utility.yul\":903:909   */\n      0x00\n        /* \"#utility.yul\":911:917   */\n      dup1\n        /* \"#utility.yul\":919:925   */\n      0x00\n        /* \"#utility.yul\":968:970   */\n      0x60\n        /* \"#utility.yul\":956:965   */\n      dup5\n        /* \"#utility.yul\":947:954   */\n      dup7\n        /* \"#utility.yul\":943:966   */\n      sub\n        /* \"#utility.yul\":939:971   */\n      slt\n        /* \"#utility.yul\":936:938   */\n      iszero\n      tag_93\n      jumpi\n        /* \"#utility.yul\":984:985   */\n      0x00\n        /* \"#utility.yul\":981:982   */\n      dup1\n        /* \"#utility.yul\":974:986   */\n      revert\n        /* \"#utility.yul\":936:938   */\n    tag_93:\n        /* \"#utility.yul\":1055:1056   */\n      0x00\n        /* \"#utility.yul\":1044:1053   */\n      dup5\n        /* \"#utility.yul\":1040:1057   */\n      add\n        /* \"#utility.yul\":1027:1058   */\n      calldataload\n        /* \"#utility.yul\":1085:1103   */\n      0xffffffffffffffff\n        /* \"#utility.yul\":1077:1083   */\n      dup2\n        /* \"#utility.yul\":1074:1104   */\n      gt\n        /* \"#utility.yul\":1071:1073   */\n      iszero\n      tag_94\n      jumpi\n        /* \"#utility.yul\":1117:1118   */\n      0x00\n        /* \"#utility.yul\":1114:1115   */\n      dup1\n        /* \"#utility.yul\":1107:1119   */\n      revert\n        /* \"#utility.yul\":1071:1073   */\n    tag_94:\n        /* \"#utility.yul\":1145:1208   */\n      tag_95\n        /* \"#utility.yul\":1200:1207   */\n      dup7\n        /* \"#utility.yul\":1191:1197   */\n      dup3\n        /* \"#utility.yul\":1180:1189   */\n      dup8\n        /* \"#utility.yul\":1176:1198   */\n      add\n        /* \"#utility.yul\":1145:1208   */\n      tag_84\n      jump\t// in\n    tag_95:\n        /* \"#utility.yul\":1135:1208   */\n      swap4\n      pop\n        /* \"#utility.yul\":998:1218   */\n      pop\n        /* \"#utility.yul\":1285:1287   */\n      0x20\n        /* \"#utility.yul\":1274:1283   */\n      dup5\n        /* \"#utility.yul\":1270:1288   */\n      add\n        /* \"#utility.yul\":1257:1289   */\n      calldataload\n        /* \"#utility.yul\":1316:1334   */\n      0xffffffffffffffff\n        /* \"#utility.yul\":1308:1314   */\n      dup2\n        /* \"#utility.yul\":1305:1335   */\n      gt\n        /* \"#utility.yul\":1302:1304   */\n      iszero\n      tag_96\n      jumpi\n        /* \"#utility.yul\":1348:1349   */\n      0x00\n        /* \"#utility.yul\":1345:1346   */\n      dup1\n        /* \"#utility.yul\":1338:1350   */\n      revert\n        /* \"#utility.yul\":1302:1304   */\n    tag_96:\n        /* \"#utility.yul\":1376:1439   */\n      tag_97\n        /* \"#utility.yul\":1431:1438   */\n      dup7\n        /* \"#utility.yul\":1422:1428   */\n      dup3\n        /* \"#utility.yul\":1411:1420   */\n      dup8\n        /* \"#utility.yul\":1407:1429   */\n      add\n        /* \"#utility.yul\":1376:1439   */\n      tag_84\n      jump\t// in\n    tag_97:\n        /* \"#utility.yul\":1366:1439   */\n      swap3\n      pop\n        /* \"#utility.yul\":1228:1449   */\n      pop\n        /* \"#utility.yul\":1516:1518   */\n      0x40\n        /* \"#utility.yul\":1505:1514   */\n      dup5\n        /* \"#utility.yul\":1501:1519   */\n      add\n        /* \"#utility.yul\":1488:1520   */\n      calldataload\n        /* \"#utility.yul\":1547:1565   */\n      0xffffffffffffffff\n        /* \"#utility.yul\":1539:1545   */\n      dup2\n        /* \"#utility.yul\":1536:1566   */\n      gt\n        /* \"#utility.yul\":1533:1535   */\n      iszero\n      tag_98\n      jumpi\n        /* \"#utility.yul\":1579:1580   */\n      0x00\n        /* \"#utility.yul\":1576:1577   */\n      dup1\n        /* \"#utility.yul\":1569:1581   */\n      revert\n        /* \"#utility.yul\":1533:1535   */\n    tag_98:\n        /* \"#utility.yul\":1607:1670   */\n      tag_99\n        /* \"#utility.yul\":1662:1669   */\n      dup7\n        /* \"#utility.yul\":1653:1659   */\n      dup3\n        /* \"#utility.yul\":1642:1651   */\n      dup8\n        /* \"#utility.yul\":1638:1660   */\n      add\n        /* \"#utility.yul\":1607:1670   */\n      tag_84\n      jump\t// in\n    tag_99:\n        /* \"#utility.yul\":1597:1670   */\n      swap2\n      pop\n        /* \"#utility.yul\":1459:1680   */\n      pop\n        /* \"#utility.yul\":926:1687   */\n      swap3\n      pop\n      swap3\n      pop\n      swap3\n      jump\t// out\n        /* \"#utility.yul\":1693:1955   */\n    tag_21:\n        /* \"#utility.yul\":1752:1758   */\n      0x00\n        /* \"#utility.yul\":1801:1803   */\n      0x20\n        /* \"#utility.yul\":1789:1798   */\n      dup3\n        /* \"#utility.yul\":1780:1787   */\n      dup5\n        /* \"#utility.yul\":1776:1799   */\n      sub\n        /* \"#utility.yul\":1772:1804   */\n      slt\n        /* \"#utility.yul\":1769:1771   */\n      iszero\n      tag_101\n      jumpi\n        /* \"#utility.yul\":1817:1818   */\n      0x00\n        /* \"#utility.yul\":1814:1815   */\n      dup1\n        /* \"#utility.yul\":1807:1819   */\n      revert\n        /* \"#utility.yul\":1769:1771   */\n    tag_101:\n        /* \"#utility.yul\":1860:1861   */\n      0x00\n        /* \"#utility.yul\":1885:1938   */\n      tag_102\n        /* \"#utility.yul\":1930:1937   */\n      dup5\n        /* \"#utility.yul\":1921:1927   */\n      dup3\n        /* \"#utility.yul\":1910:1919   */\n      dup6\n        /* \"#utility.yul\":1906:1928   */\n      add\n        /* \"#utility.yul\":1885:1938   */\n      tag_88\n      jump\t// in\n    tag_102:\n        /* \"#utility.yul\":1875:1938   */\n      swap2\n      pop\n        /* \"#utility.yul\":1831:1948   */\n      pop\n        /* \"#utility.yul\":1759:1955   */\n      swap3\n      swap2\n      pop\n      pop\n      jump\t// out\n        /* \"#utility.yul\":1961:2217   */\n    tag_103:\n        /* \"#utility.yul\":2080:2090   */\n      0x00\n        /* \"#utility.yul\":2115:2211   */\n      tag_105\n        /* \"#utility.yul\":2207:2210   */\n      dup4\n        /* \"#utility.yul\":2199:2205   */\n      dup4\n        /* \"#utility.yul\":2115:2211   */\n      tag_106\n      jump\t// in\n    tag_105:\n        /* \"#utility.yul\":2101:2211   */\n      swap1\n      pop\n        /* \"#utility.yul\":2091:2217   */\n      swap3\n      swap2\n      pop\n      pop\n      jump\t// out\n        /* \"#utility.yul\":2223:2341   */\n    tag_107:\n        /* \"#utility.yul\":2310:2334   */\n      tag_109\n        /* \"#utility.yul\":2328:2333   */\n      dup2\n        /* \"#utility.yul\":2310:2334   */\n      tag_110\n      jump\t// in\n    tag_109:\n        /* \"#utility.yul\":2305:2308   */\n      dup3\n        /* \"#utility.yul\":2298:2335   */\n      mstore\n        /* \"#utility.yul\":2288:2341   */\n      pop\n      pop\n      jump\t// out\n        /* \"#utility.yul\":2413:3524   */\n    tag_111:\n        /* \"#utility.yul\":2582:2585   */\n      0x00\n        /* \"#utility.yul\":2611:2690   */\n      tag_113\n        /* \"#utility.yul\":2684:2689   */\n      dup3\n        /* \"#utility.yul\":2611:2690   */\n      tag_114\n      jump\t// in\n    tag_113:\n        /* \"#utility.yul\":2706:2817   */\n      tag_115\n        /* \"#utility.yul\":2810:2816   */\n      dup2\n        /* \"#utility.yul\":2805:2808   */\n      dup6\n        /* \"#utility.yul\":2706:2817   */\n      tag_116\n      jump\t// in\n    tag_115:\n        /* \"#utility.yul\":2699:2817   */\n      swap4\n      pop\n        /* \"#utility.yul\":2843:2846   */\n      dup4\n        /* \"#utility.yul\":2888:2892   */\n      0x20\n        /* \"#utility.yul\":2880:2886   */\n      dup3\n        /* \"#utility.yul\":2876:2893   */\n      mul\n        /* \"#utility.yul\":2871:2874   */\n      dup6\n        /* \"#utility.yul\":2867:2894   */\n      add\n        /* \"#utility.yul\":2918:2999   */\n      tag_117\n        /* \"#utility.yul\":2993:2998   */\n      dup6\n        /* \"#utility.yul\":2918:2999   */\n      tag_118\n      jump\t// in\n    tag_117:\n        /* \"#utility.yul\":3022:3029   */\n      dup1\n        /* \"#utility.yul\":3053:3054   */\n      0x00\n        /* \"#utility.yul\":3038:3479   */\n    tag_119:\n        /* \"#utility.yul\":3063:3069   */\n      dup6\n        /* \"#utility.yul\":3060:3061   */\n      dup2\n        /* \"#utility.yul\":3057:3070   */\n      lt\n        /* \"#utility.yul\":3038:3479   */\n      iszero\n      tag_121\n      jumpi\n        /* \"#utility.yul\":3134:3143   */\n      dup5\n        /* \"#utility.yul\":3128:3132   */\n      dup5\n        /* \"#utility.yul\":3124:3144   */\n      sub\n        /* \"#utility.yul\":3119:3122   */\n      dup10\n        /* \"#utility.yul\":3112:3145   */\n      mstore\n        /* \"#utility.yul\":3185:3191   */\n      dup2\n        /* \"#utility.yul\":3179:3192   */\n      mload\n        /* \"#utility.yul\":3213:3327   */\n      tag_122\n        /* \"#utility.yul\":3322:3326   */\n      dup6\n        /* \"#utility.yul\":3307:3320   */\n      dup3\n        /* \"#utility.yul\":3213:3327   */\n      tag_103\n      jump\t// in\n    tag_122:\n        /* \"#utility.yul\":3205:3327   */\n      swap5\n      pop\n        /* \"#utility.yul\":3350:3435   */\n      tag_123\n        /* \"#utility.yul\":3428:3434   */\n      dup4\n        /* \"#utility.yul\":3350:3435   */\n      tag_124\n      jump\t// in\n    tag_123:\n        /* \"#utility.yul\":3340:3435   */\n      swap3\n      pop\n        /* \"#utility.yul\":3464:3468   */\n      0x20\n        /* \"#utility.yul\":3459:3462   */\n      dup11\n        /* \"#utility.yul\":3455:3469   */\n      add\n        /* \"#utility.yul\":3448:3469   */\n      swap10\n      pop\n        /* \"#utility.yul\":3098:3479   */\n      pop\n        /* \"#utility.yul\":3085:3086   */\n      0x01\n        /* \"#utility.yul\":3082:3083   */\n      dup2\n        /* \"#utility.yul\":3078:3087   */\n      add\n        /* \"#utility.yul\":3073:3087   */\n      swap1\n      pop\n        /* \"#utility.yul\":3038:3479   */\n      jump(tag_119)\n    tag_121:\n        /* \"#utility.yul\":3042:3056   */\n      pop\n        /* \"#utility.yul\":3495:3499   */\n      dup3\n        /* \"#utility.yul\":3488:3499   */\n      swap8\n      pop\n        /* \"#utility.yul\":3515:3518   */\n      dup8\n        /* \"#utility.yul\":3508:3518   */\n      swap6\n      pop\n        /* \"#utility.yul\":2587:3524   */\n      pop\n      pop\n      pop\n      pop\n      pop\n      swap3\n      swap2\n      pop\n      pop\n      jump\t// out\n        /* \"#utility.yul\":3530:3648   */\n    tag_125:\n        /* \"#utility.yul\":3617:3641   */\n      tag_127\n        /* \"#utility.yul\":3635:3640   */\n      dup2\n        /* \"#utility.yul\":3617:3641   */\n      tag_128\n      jump\t// in\n    tag_127:\n        /* \"#utility.yul\":3612:3615   */\n      dup3\n        /* \"#utility.yul\":3605:3642   */\n      mstore\n        /* \"#utility.yul\":3595:3648   */\n      pop\n      pop\n      jump\t// out\n        /* \"#utility.yul\":3654:3998   */\n    tag_129:\n        /* \"#utility.yul\":3732:3735   */\n      0x00\n        /* \"#utility.yul\":3760:3799   */\n      tag_131\n        /* \"#utility.yul\":3793:3798   */\n      dup3\n        /* \"#utility.yul\":3760:3799   */\n      tag_132\n      jump\t// in\n    tag_131:\n        /* \"#utility.yul\":3815:3876   */\n      tag_133\n        /* \"#utility.yul\":3869:3875   */\n      dup2\n        /* \"#utility.yul\":3864:3867   */\n      dup6\n        /* \"#utility.yul\":3815:3876   */\n      tag_134\n      jump\t// in\n    tag_133:\n        /* \"#utility.yul\":3808:3876   */\n      swap4\n      pop\n        /* \"#utility.yul\":3885:3937   */\n      tag_135\n        /* \"#utility.yul\":3930:3936   */\n      dup2\n        /* \"#utility.yul\":3925:3928   */\n      dup6\n        /* \"#utility.yul\":3918:3922   */\n      0x20\n        /* \"#utility.yul\":3911:3916   */\n      dup7\n        /* \"#utility.yul\":3907:3923   */\n      add\n        /* \"#utility.yul\":3885:3937   */\n      tag_136\n      jump\t// in\n    tag_135:\n        /* \"#utility.yul\":3962:3991   */\n      tag_137\n        /* \"#utility.yul\":3984:3990   */\n      dup2\n        /* \"#utility.yul\":3962:3991   */\n      tag_138\n      jump\t// in\n    tag_137:\n        /* \"#utility.yul\":3957:3960   */\n      dup5\n        /* \"#utility.yul\":3953:3992   */\n      add\n        /* \"#utility.yul\":3946:3992   */\n      swap2\n      pop\n        /* \"#utility.yul\":3736:3998   */\n      pop\n      swap3\n      swap2\n      pop\n      pop\n      jump\t// out\n        /* \"#utility.yul\":4004:4370   */\n    tag_139:\n        /* \"#utility.yul\":4146:4149   */\n      0x00\n        /* \"#utility.yul\":4167:4234   */\n      tag_141\n        /* \"#utility.yul\":4231:4233   */\n      0x20\n        /* \"#utility.yul\":4226:4229   */\n      dup4\n        /* \"#utility.yul\":4167:4234   */\n      tag_142\n      jump\t// in\n    tag_141:\n        /* \"#utility.yul\":4160:4234   */\n      swap2\n      pop\n        /* \"#utility.yul\":4243:4336   */\n      tag_143\n        /* \"#utility.yul\":4332:4335   */\n      dup3\n        /* \"#utility.yul\":4243:4336   */\n      tag_144\n      jump\t// in\n    tag_143:\n        /* \"#utility.yul\":4361:4363   */\n      0x20\n        /* \"#utility.yul\":4356:4359   */\n      dup3\n        /* \"#utility.yul\":4352:4364   */\n      add\n        /* \"#utility.yul\":4345:4364   */\n      swap1\n      pop\n        /* \"#utility.yul\":4150:4370   */\n      swap2\n      swap1\n      pop\n      jump\t// out\n        /* \"#utility.yul\":4376:4742   */\n    tag_145:\n        /* \"#utility.yul\":4518:4521   */\n      0x00\n        /* \"#utility.yul\":4539:4606   */\n      tag_147\n        /* \"#utility.yul\":4603:4605   */\n      0x40\n        /* \"#utility.yul\":4598:4601   */\n      dup4\n        /* \"#utility.yul\":4539:4606   */\n      tag_142\n      jump\t// in\n    tag_147:\n        /* \"#utility.yul\":4532:4606   */\n      swap2\n      pop\n        /* \"#utility.yul\":4615:4708   */\n      tag_148\n        /* \"#utility.yul\":4704:4707   */\n      dup3\n        /* \"#utility.yul\":4615:4708   */\n      tag_149\n      jump\t// in\n    tag_148:\n        /* \"#utility.yul\":4733:4735   */\n      0x40\n        /* \"#utility.yul\":4728:4731   */\n      dup3\n        /* \"#utility.yul\":4724:4736   */\n      add\n        /* \"#utility.yul\":4717:4736   */\n      swap1\n      pop\n        /* \"#utility.yul\":4522:4742   */\n      swap2\n      swap1\n      pop\n      jump\t// out\n        /* \"#utility.yul\":4810:5732   */\n    tag_106:\n        /* \"#utility.yul\":4919:4922   */\n      0x00\n        /* \"#utility.yul\":4955:4959   */\n      0x60\n        /* \"#utility.yul\":4950:4953   */\n      dup4\n        /* \"#utility.yul\":4946:4960   */\n      add\n        /* \"#utility.yul\":5042:5046   */\n      0x00\n        /* \"#utility.yul\":5035:5040   */\n      dup4\n        /* \"#utility.yul\":5031:5047   */\n      add\n        /* \"#utility.yul\":5025:5048   */\n      mload\n        /* \"#utility.yul\":5095:5098   */\n      dup5\n        /* \"#utility.yul\":5089:5093   */\n      dup3\n        /* \"#utility.yul\":5085:5099   */\n      sub\n        /* \"#utility.yul\":5078:5082   */\n      0x00\n        /* \"#utility.yul\":5073:5076   */\n      dup7\n        /* \"#utility.yul\":5069:5083   */\n      add\n        /* \"#utility.yul\":5062:5100   */\n      mstore\n        /* \"#utility.yul\":5121:5194   */\n      tag_151\n        /* \"#utility.yul\":5189:5193   */\n      dup3\n        /* \"#utility.yul\":5175:5187   */\n      dup3\n        /* \"#utility.yul\":5121:5194   */\n      tag_129\n      jump\t// in\n    tag_151:\n        /* \"#utility.yul\":5113:5194   */\n      swap2\n      pop\n        /* \"#utility.yul\":4970:5205   */\n      pop\n        /* \"#utility.yul\":5295:5299   */\n      0x20\n        /* \"#utility.yul\":5288:5293   */\n      dup4\n        /* \"#utility.yul\":5284:5300   */\n      add\n        /* \"#utility.yul\":5278:5301   */\n      mload\n        /* \"#utility.yul\":5348:5351   */\n      dup5\n        /* \"#utility.yul\":5342:5346   */\n      dup3\n        /* \"#utility.yul\":5338:5352   */\n      sub\n        /* \"#utility.yul\":5331:5335   */\n      0x20\n        /* \"#utility.yul\":5326:5329   */\n      dup7\n        /* \"#utility.yul\":5322:5336   */\n      add\n        /* \"#utility.yul\":5315:5353   */\n      mstore\n        /* \"#utility.yul\":5374:5447   */\n      tag_152\n        /* \"#utility.yul\":5442:5446   */\n      dup3\n        /* \"#utility.yul\":5428:5440   */\n      dup3\n        /* \"#utility.yul\":5374:5447   */\n      tag_129\n      jump\t// in\n    tag_152:\n        /* \"#utility.yul\":5366:5447   */\n      swap2\n      pop\n        /* \"#utility.yul\":5215:5458   */\n      pop\n        /* \"#utility.yul\":5542:5546   */\n      0x40\n        /* \"#utility.yul\":5535:5540   */\n      dup4\n        /* \"#utility.yul\":5531:5547   */\n      add\n        /* \"#utility.yul\":5525:5548   */\n      mload\n        /* \"#utility.yul\":5595:5598   */\n      dup5\n        /* \"#utility.yul\":5589:5593   */\n      dup3\n        /* \"#utility.yul\":5585:5599   */\n      sub\n        /* \"#utility.yul\":5578:5582   */\n      0x40\n        /* \"#utility.yul\":5573:5576   */\n      dup7\n        /* \"#utility.yul\":5569:5583   */\n      add\n        /* \"#utility.yul\":5562:5600   */\n      mstore\n        /* \"#utility.yul\":5621:5694   */\n      tag_153\n        /* \"#utility.yul\":5689:5693   */\n      dup3\n        /* \"#utility.yul\":5675:5687   */\n      dup3\n        /* \"#utility.yul\":5621:5694   */\n      tag_129\n      jump\t// in\n    tag_153:\n        /* \"#utility.yul\":5613:5694   */\n      swap2\n      pop\n        /* \"#utility.yul\":5468:5705   */\n      pop\n        /* \"#utility.yul\":5722:5726   */\n      dup1\n        /* \"#utility.yul\":5715:5726   */\n      swap2\n      pop\n        /* \"#utility.yul\":4924:5732   */\n      pop\n      swap3\n      swap2\n      pop\n      pop\n      jump\t// out\n        /* \"#utility.yul\":5738:5895   */\n    tag_154:\n        /* \"#utility.yul\":5843:5888   */\n      tag_156\n        /* \"#utility.yul\":5863:5887   */\n      tag_157\n        /* \"#utility.yul\":5881:5886   */\n      dup3\n        /* \"#utility.yul\":5863:5887   */\n      tag_158\n      jump\t// in\n    tag_157:\n        /* \"#utility.yul\":5843:5888   */\n      tag_159\n      jump\t// in\n    tag_156:\n        /* \"#utility.yul\":5838:5841   */\n      dup3\n        /* \"#utility.yul\":5831:5889   */\n      mstore\n        /* \"#utility.yul\":5821:5895   */\n      pop\n      pop\n      jump\t// out\n        /* \"#utility.yul\":5901:6157   */\n    tag_57:\n        /* \"#utility.yul\":6013:6016   */\n      0x00\n        /* \"#utility.yul\":6028:6103   */\n      tag_161\n        /* \"#utility.yul\":6099:6102   */\n      dup3\n        /* \"#utility.yul\":6090:6096   */\n      dup5\n        /* \"#utility.yul\":6028:6103   */\n      tag_154\n      jump\t// in\n    tag_161:\n        /* \"#utility.yul\":6128:6130   */\n      0x20\n        /* \"#utility.yul\":6123:6126   */\n      dup3\n        /* \"#utility.yul\":6119:6131   */\n      add\n        /* \"#utility.yul\":6112:6131   */\n      swap2\n      pop\n        /* \"#utility.yul\":6148:6151   */\n      dup2\n        /* \"#utility.yul\":6141:6151   */\n      swap1\n      pop\n        /* \"#utility.yul\":6017:6157   */\n      swap3\n      swap2\n      pop\n      pop\n      jump\t// out\n        /* \"#utility.yul\":6163:6385   */\n    tag_18:\n        /* \"#utility.yul\":6256:6260   */\n      0x00\n        /* \"#utility.yul\":6294:6296   */\n      0x20\n        /* \"#utility.yul\":6283:6292   */\n      dup3\n        /* \"#utility.yul\":6279:6297   */\n      add\n        /* \"#utility.yul\":6271:6297   */\n      swap1\n      pop\n        /* \"#utility.yul\":6307:6378   */\n      tag_163\n        /* \"#utility.yul\":6375:6376   */\n      0x00\n        /* \"#utility.yul\":6364:6373   */\n      dup4\n        /* \"#utility.yul\":6360:6377   */\n      add\n        /* \"#utility.yul\":6351:6357   */\n      dup5\n        /* \"#utility.yul\":6307:6378   */\n      tag_107\n      jump\t// in\n    tag_163:\n        /* \"#utility.yul\":6261:6385   */\n      swap3\n      swap2\n      pop\n      pop\n      jump\t// out\n        /* \"#utility.yul\":6391:6864   */\n    tag_14:\n        /* \"#utility.yul\":6584:6588   */\n      0x00\n        /* \"#utility.yul\":6622:6624   */\n      0x20\n        /* \"#utility.yul\":6611:6620   */\n      dup3\n        /* \"#utility.yul\":6607:6625   */\n      add\n        /* \"#utility.yul\":6599:6625   */\n      swap1\n      pop\n        /* \"#utility.yul\":6671:6680   */\n      dup2\n        /* \"#utility.yul\":6665:6669   */\n      dup2\n        /* \"#utility.yul\":6661:6681   */\n      sub\n        /* \"#utility.yul\":6657:6658   */\n      0x00\n        /* \"#utility.yul\":6646:6655   */\n      dup4\n        /* \"#utility.yul\":6642:6659   */\n      add\n        /* \"#utility.yul\":6635:6682   */\n      mstore\n        /* \"#utility.yul\":6699:6857   */\n      tag_165\n        /* \"#utility.yul\":6852:6856   */\n      dup2\n        /* \"#utility.yul\":6843:6849   */\n      dup5\n        /* \"#utility.yul\":6699:6857   */\n      tag_111\n      jump\t// in\n    tag_165:\n        /* \"#utility.yul\":6691:6857   */\n      swap1\n      pop\n        /* \"#utility.yul\":6589:6864   */\n      swap3\n      swap2\n      pop\n      pop\n      jump\t// out\n        /* \"#utility.yul\":6870:7092   */\n    tag_24:\n        /* \"#utility.yul\":6963:6967   */\n      0x00\n        /* \"#utility.yul\":7001:7003   */\n      0x20\n        /* \"#utility.yul\":6990:6999   */\n      dup3\n        /* \"#utility.yul\":6986:7004   */\n      add\n        /* \"#utility.yul\":6978:7004   */\n      swap1\n      pop\n        /* \"#utility.yul\":7014:7085   */\n      tag_167\n        /* \"#utility.yul\":7082:7083   */\n      0x00\n        /* \"#utility.yul\":7071:7080   */\n      dup4\n        /* \"#utility.yul\":7067:7084   */\n      add\n        /* \"#utility.yul\":7058:7064   */\n      dup5\n        /* \"#utility.yul\":7014:7085   */\n      tag_125\n      jump\t// in\n    tag_167:\n        /* \"#utility.yul\":6968:7092   */\n      swap3\n      swap2\n      pop\n      pop\n      jump\t// out\n        /* \"#utility.yul\":7098:7517   */\n    tag_28:\n        /* \"#utility.yul\":7264:7268   */\n      0x00\n        /* \"#utility.yul\":7302:7304   */\n      0x20\n        /* \"#utility.yul\":7291:7300   */\n      dup3\n        /* \"#utility.yul\":7287:7305   */\n      add\n        /* \"#utility.yul\":7279:7305   */\n      swap1\n      pop\n        /* \"#utility.yul\":7351:7360   */\n      dup2\n        /* \"#utility.yul\":7345:7349   */\n      dup2\n        /* \"#utility.yul\":7341:7361   */\n      sub\n        /* \"#utility.yul\":7337:7338   */\n      0x00\n        /* \"#utility.yul\":7326:7335   */\n      dup4\n        /* \"#utility.yul\":7322:7339   */\n      add\n        /* \"#utility.yul\":7315:7362   */\n      mstore\n        /* \"#utility.yul\":7379:7510   */\n      tag_169\n        /* \"#utility.yul\":7505:7509   */\n      dup2\n        /* \"#utility.yul\":7379:7510   */\n      tag_139\n      jump\t// in\n    tag_169:\n        /* \"#utility.yul\":7371:7510   */\n      swap1\n      pop\n        /* \"#utility.yul\":7269:7517   */\n      swap2\n      swap1\n      pop\n      jump\t// out\n        /* \"#utility.yul\":7523:7942   */\n    tag_54:\n        /* \"#utility.yul\":7689:7693   */\n      0x00\n        /* \"#utility.yul\":7727:7729   */\n      0x20\n        /* \"#utility.yul\":7716:7725   */\n      dup3\n        /* \"#utility.yul\":7712:7730   */\n      add\n        /* \"#utility.yul\":7704:7730   */\n      swap1\n      pop\n        /* \"#utility.yul\":7776:7785   */\n      dup2\n        /* \"#utility.yul\":7770:7774   */\n      dup2\n        /* \"#utility.yul\":7766:7786   */\n      sub\n        /* \"#utility.yul\":7762:7763   */\n      0x00\n        /* \"#utility.yul\":7751:7760   */\n      dup4\n        /* \"#utility.yul\":7747:7764   */\n      add\n        /* \"#utility.yul\":7740:7787   */\n      mstore\n        /* \"#utility.yul\":7804:7935   */\n      tag_171\n        /* \"#utility.yul\":7930:7934   */\n      dup2\n        /* \"#utility.yul\":7804:7935   */\n      tag_145\n      jump\t// in\n    tag_171:\n        /* \"#utility.yul\":7796:7935   */\n      swap1\n      pop\n        /* \"#utility.yul\":7694:7942   */\n      swap2\n      swap1\n      pop\n      jump\t// out\n        /* \"#utility.yul\":7948:8077   */\n    tag_80:\n        /* \"#utility.yul\":7982:7988   */\n      0x00\n        /* \"#utility.yul\":8009:8029   */\n      tag_173\n      tag_174\n      jump\t// in\n    tag_173:\n        /* \"#utility.yul\":7999:8029   */\n      swap1\n      pop\n        /* \"#utility.yul\":8038:8071   */\n      tag_175\n        /* \"#utility.yul\":8066:8070   */\n      dup3\n        /* \"#utility.yul\":8058:8064   */\n      dup3\n        /* \"#utility.yul\":8038:8071   */\n      tag_176\n      jump\t// in\n    tag_175:\n        /* \"#utility.yul\":7989:8077   */\n      swap2\n      swap1\n      pop\n      jump\t// out\n        /* \"#utility.yul\":8083:8158   */\n    tag_174:\n        /* \"#utility.yul\":8116:8122   */\n      0x00\n        /* \"#utility.yul\":8149:8151   */\n      0x40\n        /* \"#utility.yul\":8143:8152   */\n      mload\n        /* \"#utility.yul\":8133:8152   */\n      swap1\n      pop\n        /* \"#utility.yul\":8123:8158   */\n      swap1\n      jump\t// out\n        /* \"#utility.yul\":8164:8472   */\n    tag_79:\n        /* \"#utility.yul\":8226:8230   */\n      0x00\n        /* \"#utility.yul\":8316:8334   */\n      0xffffffffffffffff\n        /* \"#utility.yul\":8308:8314   */\n      dup3\n        /* \"#utility.yul\":8305:8335   */\n      gt\n        /* \"#utility.yul\":8302:8304   */\n      iszero\n      tag_179\n      jumpi\n        /* \"#utility.yul\":8338:8356   */\n      tag_180\n      tag_181\n      jump\t// in\n    tag_180:\n        /* \"#utility.yul\":8302:8304   */\n    tag_179:\n        /* \"#utility.yul\":8376:8405   */\n      tag_182\n        /* \"#utility.yul\":8398:8404   */\n      dup3\n        /* \"#utility.yul\":8376:8405   */\n      tag_138\n      jump\t// in\n    tag_182:\n        /* \"#utility.yul\":8368:8405   */\n      swap1\n      pop\n        /* \"#utility.yul\":8460:8464   */\n      0x20\n        /* \"#utility.yul\":8454:8458   */\n      dup2\n        /* \"#utility.yul\":8450:8465   */\n      add\n        /* \"#utility.yul\":8442:8465   */\n      swap1\n      pop\n        /* \"#utility.yul\":8231:8472   */\n      swap2\n      swap1\n      pop\n      jump\t// out\n        /* \"#utility.yul\":8478:8635   */\n    tag_118:\n        /* \"#utility.yul\":8570:8574   */\n      0x00\n        /* \"#utility.yul\":8593:8596   */\n      dup2\n        /* \"#utility.yul\":8585:8596   */\n      swap1\n      pop\n        /* \"#utility.yul\":8623:8627   */\n      0x20\n        /* \"#utility.yul\":8618:8621   */\n      dup3\n        /* \"#utility.yul\":8614:8628   */\n      add\n        /* \"#utility.yul\":8606:8628   */\n      swap1\n      pop\n        /* \"#utility.yul\":8575:8635   */\n      swap2\n      swap1\n      pop\n      jump\t// out\n        /* \"#utility.yul\":8641:8780   */\n    tag_114:\n        /* \"#utility.yul\":8733:8739   */\n      0x00\n        /* \"#utility.yul\":8767:8772   */\n      dup2\n        /* \"#utility.yul\":8761:8773   */\n      mload\n        /* \"#utility.yul\":8751:8773   */\n      swap1\n      pop\n        /* \"#utility.yul\":8740:8780   */\n      swap2\n      swap1\n      pop\n      jump\t// out\n        /* \"#utility.yul\":8786:8885   */\n    tag_132:\n        /* \"#utility.yul\":8838:8844   */\n      0x00\n        /* \"#utility.yul\":8872:8877   */\n      dup2\n        /* \"#utility.yul\":8866:8878   */\n      mload\n        /* \"#utility.yul\":8856:8878   */\n      swap1\n      pop\n        /* \"#utility.yul\":8845:8885   */\n      swap2\n      swap1\n      pop\n      jump\t// out\n        /* \"#utility.yul\":8891:9029   */\n    tag_124:\n        /* \"#utility.yul\":8986:8990   */\n      0x00\n        /* \"#utility.yul\":9018:9022   */\n      0x20\n        /* \"#utility.yul\":9013:9016   */\n      dup3\n        /* \"#utility.yul\":9009:9023   */\n      add\n        /* \"#utility.yul\":9001:9023   */\n      swap1\n      pop\n        /* \"#utility.yul\":8991:9029   */\n      swap2\n      swap1\n      pop\n      jump\t// out\n        /* \"#utility.yul\":9035:9244   */\n    tag_116:\n        /* \"#utility.yul\":9159:9170   */\n      0x00\n        /* \"#utility.yul\":9193:9199   */\n      dup3\n        /* \"#utility.yul\":9188:9191   */\n      dup3\n        /* \"#utility.yul\":9181:9200   */\n      mstore\n        /* \"#utility.yul\":9233:9237   */\n      0x20\n        /* \"#utility.yul\":9228:9231   */\n      dup3\n        /* \"#utility.yul\":9224:9238   */\n      add\n        /* \"#utility.yul\":9209:9238   */\n      swap1\n      pop\n        /* \"#utility.yul\":9171:9244   */\n      swap3\n      swap2\n      pop\n      pop\n      jump\t// out\n        /* \"#utility.yul\":9250:9409   */\n    tag_134:\n        /* \"#utility.yul\":9324:9335   */\n      0x00\n        /* \"#utility.yul\":9358:9364   */\n      dup3\n        /* \"#utility.yul\":9353:9356   */\n      dup3\n        /* \"#utility.yul\":9346:9365   */\n      mstore\n        /* \"#utility.yul\":9398:9402   */\n      0x20\n        /* \"#utility.yul\":9393:9396   */\n      dup3\n        /* \"#utility.yul\":9389:9403   */\n      add\n        /* \"#utility.yul\":9374:9403   */\n      swap1\n      pop\n        /* \"#utility.yul\":9336:9409   */\n      swap3\n      swap2\n      pop\n      pop\n      jump\t// out\n        /* \"#utility.yul\":9415:9584   */\n    tag_142:\n        /* \"#utility.yul\":9499:9510   */\n      0x00\n        /* \"#utility.yul\":9533:9539   */\n      dup3\n        /* \"#utility.yul\":9528:9531   */\n      dup3\n        /* \"#utility.yul\":9521:9540   */\n      mstore\n        /* \"#utility.yul\":9573:9577   */\n      0x20\n        /* \"#utility.yul\":9568:9571   */\n      dup3\n        /* \"#utility.yul\":9564:9578   */\n      add\n        /* \"#utility.yul\":9549:9578   */\n      swap1\n      pop\n        /* \"#utility.yul\":9511:9584   */\n      swap3\n      swap2\n      pop\n      pop\n      jump\t// out\n        /* \"#utility.yul\":9590:9686   */\n    tag_110:\n        /* \"#utility.yul\":9627:9634   */\n      0x00\n        /* \"#utility.yul\":9656:9680   */\n      tag_191\n        /* \"#utility.yul\":9674:9679   */\n      dup3\n        /* \"#utility.yul\":9656:9680   */\n      tag_192\n      jump\t// in\n    tag_191:\n        /* \"#utility.yul\":9645:9680   */\n      swap1\n      pop\n        /* \"#utility.yul\":9635:9686   */\n      swap2\n      swap1\n      pop\n      jump\t// out\n        /* \"#utility.yul\":9692:9769   */\n    tag_128:\n        /* \"#utility.yul\":9729:9736   */\n      0x00\n        /* \"#utility.yul\":9758:9763   */\n      dup2\n        /* \"#utility.yul\":9747:9763   */\n      swap1\n      pop\n        /* \"#utility.yul\":9737:9769   */\n      swap2\n      swap1\n      pop\n      jump\t// out\n        /* \"#utility.yul\":9775:9901   */\n    tag_192:\n        /* \"#utility.yul\":9812:9819   */\n      0x00\n        /* \"#utility.yul\":9852:9894   */\n      0xffffffffffffffffffffffffffffffffffffffff\n        /* \"#utility.yul\":9845:9850   */\n      dup3\n        /* \"#utility.yul\":9841:9895   */\n      and\n        /* \"#utility.yul\":9830:9895   */\n      swap1\n      pop\n        /* \"#utility.yul\":9820:9901   */\n      swap2\n      swap1\n      pop\n      jump\t// out\n        /* \"#utility.yul\":9907:9984   */\n    tag_158:\n        /* \"#utility.yul\":9944:9951   */\n      0x00\n        /* \"#utility.yul\":9973:9978   */\n      dup2\n        /* \"#utility.yul\":9962:9978   */\n      swap1\n      pop\n        /* \"#utility.yul\":9952:9984   */\n      swap2\n      swap1\n      pop\n      jump\t// out\n        /* \"#utility.yul\":9990:10144   */\n    tag_83:\n        /* \"#utility.yul\":10074:10080   */\n      dup3\n        /* \"#utility.yul\":10069:10072   */\n      dup2\n        /* \"#utility.yul\":10064:10067   */\n      dup4\n        /* \"#utility.yul\":10051:10081   */\n      calldatacopy\n        /* \"#utility.yul\":10136:10137   */\n      0x00\n        /* \"#utility.yul\":10127:10133   */\n      dup4\n        /* \"#utility.yul\":10122:10125   */\n      dup4\n        /* \"#utility.yul\":10118:10134   */\n      add\n        /* \"#utility.yul\":10111:10138   */\n      mstore\n        /* \"#utility.yul\":10041:10144   */\n      pop\n      pop\n      pop\n      jump\t// out\n        /* \"#utility.yul\":10150:10457   */\n    tag_136:\n        /* \"#utility.yul\":10218:10219   */\n      0x00\n        /* \"#utility.yul\":10228:10341   */\n    tag_198:\n        /* \"#utility.yul\":10242:10248   */\n      dup4\n        /* \"#utility.yul\":10239:10240   */\n      dup2\n        /* \"#utility.yul\":10236:10249   */\n      lt\n        /* \"#utility.yul\":10228:10341   */\n      iszero\n      tag_200\n      jumpi\n        /* \"#utility.yul\":10327:10328   */\n      dup1\n        /* \"#utility.yul\":10322:10325   */\n      dup3\n        /* \"#utility.yul\":10318:10329   */\n      add\n        /* \"#utility.yul\":10312:10330   */\n      mload\n        /* \"#utility.yul\":10308:10309   */\n      dup2\n        /* \"#utility.yul\":10303:10306   */\n      dup5\n        /* \"#utility.yul\":10299:10310   */\n      add\n        /* \"#utility.yul\":10292:10331   */\n      mstore\n        /* \"#utility.yul\":10264:10266   */\n      0x20\n        /* \"#utility.yul\":10261:10262   */\n      dup2\n        /* \"#utility.yul\":10257:10267   */\n      add\n        /* \"#utility.yul\":10252:10267   */\n      swap1\n      pop\n        /* \"#utility.yul\":10228:10341   */\n      jump(tag_198)\n    tag_200:\n        /* \"#utility.yul\":10359:10365   */\n      dup4\n        /* \"#utility.yul\":10356:10357   */\n      dup2\n        /* \"#utility.yul\":10353:10366   */\n      gt\n        /* \"#utility.yul\":10350:10352   */\n      iszero\n      tag_201\n      jumpi\n        /* \"#utility.yul\":10439:10440   */\n      0x00\n        /* \"#utility.yul\":10430:10436   */\n      dup5\n        /* \"#utility.yul\":10425:10428   */\n      dup5\n        /* \"#utility.yul\":10421:10437   */\n      add\n        /* \"#utility.yul\":10414:10441   */\n      mstore\n        /* \"#utility.yul\":10350:10352   */\n    tag_201:\n        /* \"#utility.yul\":10199:10457   */\n      pop\n      pop\n      pop\n      pop\n      jump\t// out\n        /* \"#utility.yul\":10463:10783   */\n    tag_36:\n        /* \"#utility.yul\":10507:10513   */\n      0x00\n        /* \"#utility.yul\":10544:10545   */\n      0x02\n        /* \"#utility.yul\":10538:10542   */\n      dup3\n        /* \"#utility.yul\":10534:10546   */\n      div\n        /* \"#utility.yul\":10524:10546   */\n      swap1\n      pop\n        /* \"#utility.yul\":10591:10592   */\n      0x01\n        /* \"#utility.yul\":10585:10589   */\n      dup3\n        /* \"#utility.yul\":10581:10593   */\n      and\n        /* \"#utility.yul\":10612:10630   */\n      dup1\n        /* \"#utility.yul\":10602:10604   */\n      tag_203\n      jumpi\n        /* \"#utility.yul\":10668:10672   */\n      0x7f\n        /* \"#utility.yul\":10660:10666   */\n      dup3\n        /* \"#utility.yul\":10656:10673   */\n      and\n        /* \"#utility.yul\":10646:10673   */\n      swap2\n      pop\n        /* \"#utility.yul\":10602:10604   */\n    tag_203:\n        /* \"#utility.yul\":10730:10732   */\n      0x20\n        /* \"#utility.yul\":10722:10728   */\n      dup3\n        /* \"#utility.yul\":10719:10733   */\n      lt\n        /* \"#utility.yul\":10699:10717   */\n      dup2\n        /* \"#utility.yul\":10696:10734   */\n      eq\n        /* \"#utility.yul\":10693:10695   */\n      iszero\n      tag_204\n      jumpi\n        /* \"#utility.yul\":10749:10767   */\n      tag_205\n      tag_206\n      jump\t// in\n    tag_205:\n        /* \"#utility.yul\":10693:10695   */\n    tag_204:\n        /* \"#utility.yul\":10514:10783   */\n      pop\n      swap2\n      swap1\n      pop\n      jump\t// out\n        /* \"#utility.yul\":10789:11070   */\n    tag_176:\n        /* \"#utility.yul\":10872:10899   */\n      tag_208\n        /* \"#utility.yul\":10894:10898   */\n      dup3\n        /* \"#utility.yul\":10872:10899   */\n      tag_138\n      jump\t// in\n    tag_208:\n        /* \"#utility.yul\":10864:10870   */\n      dup2\n        /* \"#utility.yul\":10860:10900   */\n      add\n        /* \"#utility.yul\":11002:11008   */\n      dup2\n        /* \"#utility.yul\":10990:11000   */\n      dup2\n        /* \"#utility.yul\":10987:11009   */\n      lt\n        /* \"#utility.yul\":10966:10984   */\n      0xffffffffffffffff\n        /* \"#utility.yul\":10954:10964   */\n      dup3\n        /* \"#utility.yul\":10951:10985   */\n      gt\n        /* \"#utility.yul\":10948:11010   */\n      or\n        /* \"#utility.yul\":10945:10947   */\n      iszero\n      tag_209\n      jumpi\n        /* \"#utility.yul\":11013:11031   */\n      tag_210\n      tag_181\n      jump\t// in\n    tag_210:\n        /* \"#utility.yul\":10945:10947   */\n    tag_209:\n        /* \"#utility.yul\":11053:11063   */\n      dup1\n        /* \"#utility.yul\":11049:11051   */\n      0x40\n        /* \"#utility.yul\":11042:11064   */\n      mstore\n        /* \"#utility.yul\":10832:11070   */\n      pop\n      pop\n      pop\n      jump\t// out\n        /* \"#utility.yul\":11076:11155   */\n    tag_159:\n        /* \"#utility.yul\":11115:11122   */\n      0x00\n        /* \"#utility.yul\":11144:11149   */\n      dup2\n        /* \"#utility.yul\":11133:11149   */\n      swap1\n      pop\n        /* \"#utility.yul\":11123:11155   */\n      swap2\n      swap1\n      pop\n      jump\t// out\n        /* \"#utility.yul\":11161:11341   */\n    tag_206:\n        /* \"#utility.yul\":11209:11286   */\n      0x4e487b7100000000000000000000000000000000000000000000000000000000\n        /* \"#utility.yul\":11206:11207   */\n      0x00\n        /* \"#utility.yul\":11199:11287   */\n      mstore\n        /* \"#utility.yul\":11306:11310   */\n      0x22\n        /* \"#utility.yul\":11303:11304   */\n      0x04\n        /* \"#utility.yul\":11296:11311   */\n      mstore\n        /* \"#utility.yul\":11330:11334   */\n      0x24\n        /* \"#utility.yul\":11327:11328   */\n      0x00\n        /* \"#utility.yul\":11320:11335   */\n      revert\n        /* \"#utility.yul\":11347:11527   */\n    tag_181:\n        /* \"#utility.yul\":11395:11472   */\n      0x4e487b7100000000000000000000000000000000000000000000000000000000\n        /* \"#utility.yul\":11392:11393   */\n      0x00\n        /* \"#utility.yul\":11385:11473   */\n      mstore\n        /* \"#utility.yul\":11492:11496   */\n      0x41\n        /* \"#utility.yul\":11489:11490   */\n      0x04\n        /* \"#utility.yul\":11482:11497   */\n      mstore\n        /* \"#utility.yul\":11516:11520   */\n      0x24\n        /* \"#utility.yul\":11513:11514   */\n      0x00\n        /* \"#utility.yul\":11506:11521   */\n      revert\n        /* \"#utility.yul\":11533:11635   */\n    tag_138:\n        /* \"#utility.yul\":11574:11580   */\n      0x00\n        /* \"#utility.yul\":11625:11627   */\n      0x1f\n        /* \"#utility.yul\":11621:11628   */\n      not\n        /* \"#utility.yul\":11616:11618   */\n      0x1f\n        /* \"#utility.yul\":11609:11614   */\n      dup4\n        /* \"#utility.yul\":11605:11619   */\n      add\n        /* \"#utility.yul\":11601:11629   */\n      and\n        /* \"#utility.yul\":11591:11629   */\n      swap1\n      pop\n        /* \"#utility.yul\":11581:11635   */\n      swap2\n      swap1\n      pop\n      jump\t// out\n        /* \"#utility.yul\":11641:11823   */\n    tag_144:\n        /* \"#utility.yul\":11781:11815   */\n      0x446562657320706f6e657220656c206e6f6d62726520616c20706f6b656d6f6e\n        /* \"#utility.yul\":11777:11778   */\n      0x00\n        /* \"#utility.yul\":11769:11775   */\n      dup3\n        /* \"#utility.yul\":11765:11779   */\n      add\n        /* \"#utility.yul\":11758:11816   */\n      mstore\n        /* \"#utility.yul\":11747:11823   */\n      pop\n      jump\t// out\n        /* \"#utility.yul\":11829:12080   */\n    tag_149:\n        /* \"#utility.yul\":11969:12003   */\n      0x4e6f207469656e6573207065726d69736f732070617261206361707475726172\n        /* \"#utility.yul\":11965:11966   */\n      0x00\n        /* \"#utility.yul\":11957:11963   */\n      dup3\n        /* \"#utility.yul\":11953:11967   */\n      add\n        /* \"#utility.yul\":11946:12004   */\n      mstore\n        /* \"#utility.yul\":12038:12072   */\n      0x206573746f7320706f6b656d6f6e2070617261206573746120506f6b65646578\n        /* \"#utility.yul\":12033:12035   */\n      0x20\n        /* \"#utility.yul\":12025:12031   */\n      dup3\n        /* \"#utility.yul\":12021:12036   */\n      add\n        /* \"#utility.yul\":12014:12073   */\n      mstore\n        /* \"#utility.yul\":11935:12080   */\n      pop\n      jump\t// out\n        /* \"#utility.yul\":12086:12208   */\n    tag_91:\n        /* \"#utility.yul\":12159:12183   */\n      tag_218\n        /* \"#utility.yul\":12177:12182   */\n      dup2\n        /* \"#utility.yul\":12159:12183   */\n      tag_158\n      jump\t// in\n    tag_218:\n        /* \"#utility.yul\":12152:12157   */\n      dup2\n        /* \"#utility.yul\":12149:12184   */\n      eq\n        /* \"#utility.yul\":12139:12141   */\n      tag_219\n      jumpi\n        /* \"#utility.yul\":12198:12199   */\n      0x00\n        /* \"#utility.yul\":12195:12196   */\n      dup1\n        /* \"#utility.yul\":12188:12200   */\n      revert\n        /* \"#utility.yul\":12139:12141   */\n    tag_219:\n        /* \"#utility.yul\":12129:12208   */\n      pop\n      jump\t// out\n\n    auxdata: 0xa2646970667358221220eb5c7a0ee3822fe1b729936d1d6573a3a198a46591e751a789c55bdd382fd92c64736f6c63430008040033\n}\n",
				"bytecode": {
					"linkReferences": {},
					"object": "608060405234801561001057600080fd5b5033600160006101000a81548173ffffffffffffffffffffffffffffffffffffffff021916908373ffffffffffffffffffffffffffffffffffffffff160217905550610c21806100616000396000f3fe608060405234801561001057600080fd5b506004361061004c5760003560e01c806357fb6b9c14610051578063817ae0c21461006d5780638da5cb5b1461008b578063bda02842146100a9575b600080fd5b61006b6004803603810190610066919061062e565b6100d9565b005b61007561016f565b60405161008291906108bf565b60405180910390f35b610093610384565b6040516100a091906108a4565b60405180910390f35b6100c360048036038101906100be91906106c5565b6103aa565b6040516100d091906108e1565b60405180910390f35b6040518060400160405280600181526020017f2000000000000000000000000000000000000000000000000000000000000000815250805190602001208380519060200120141561015f576040517f08c379a0000000000000000000000000000000000000000000000000000000008152600401610156906108fc565b60405180910390fd5b61016a83838361046a565b505050565b60606000805480602002602001604051908101604052809291908181526020016000905b8282101561037b57838290600052602060002090600302016040518060600160405290816000820180546101c690610a80565b80601f01602080910402602001604051908101604052809291908181526020018280546101f290610a80565b801561023f5780601f106102145761010080835404028352916020019161023f565b820191906000526020600020905b81548152906001019060200180831161022257829003601f168201915b5050505050815260200160018201805461025890610a80565b80601f016020809104026020016040519081016040528092919081815260200182805461028490610a80565b80156102d15780601f106102a6576101008083540402835291602001916102d1565b820191906000526020600020905b8154815290600101906020018083116102b457829003601f168201915b505050505081526020016002820180546102ea90610a80565b80601f016020809104026020016040519081016040528092919081815260200182805461031690610a80565b80156103635780601f1061033857610100808354040283529160200191610363565b820191906000526020600020905b81548152906001019060200180831161034657829003601f168201915b50505050508152505081526020019060010190610193565b50505050905090565b600160009054906101000a900473ffffffffffffffffffffffffffffffffffffffff1681565b60003373ffffffffffffffffffffffffffffffffffffffff16600160009054906101000a900473ffffffffffffffffffffffffffffffffffffffff1673ffffffffffffffffffffffffffffffffffffffff161461043c576040517f08c379a00000000000000000000000000000000000000000000000000000000081526004016104339061091c565b60405180910390fd5b8160405160200161044d9190610889565b604051602081830303815290604052805190602001209050919050565b6000604051806060016040528085815260200184815260200183815250908060018154018082558091505060019003906000526020600020906003020160009091909190915060008201518160000190805190602001906104cc92919061050e565b5060208201518160010190805190602001906104e992919061050e565b50604082015181600201908051906020019061050692919061050e565b505050505050565b82805461051a90610a80565b90600052602060002090601f01602090048101928261053c5760008555610583565b82601f1061055557805160ff1916838001178555610583565b82800160010185558215610583579182015b82811115610582578251825591602001919060010190610567565b5b5090506105909190610594565b5090565b5b808211156105ad576000816000905550600101610595565b5090565b60006105c46105bf84610961565b61093c565b9050828152602081018484840111156105dc57600080fd5b6105e7848285610a3e565b509392505050565b600082601f83011261060057600080fd5b81356106108482602086016105b1565b91505092915050565b60008135905061062881610bd4565b92915050565b60008060006060848603121561064357600080fd5b600084013567ffffffffffffffff81111561065d57600080fd5b610669868287016105ef565b935050602084013567ffffffffffffffff81111561068657600080fd5b610692868287016105ef565b925050604084013567ffffffffffffffff8111156106af57600080fd5b6106bb868287016105ef565b9150509250925092565b6000602082840312156106d757600080fd5b60006106e584828501610619565b91505092915050565b60006106fa8383610814565b905092915050565b61070b816109f8565b82525050565b600061071c826109a2565b61072681856109c5565b93508360208202850161073885610992565b8060005b85811015610774578484038952815161075585826106ee565b9450610760836109b8565b925060208a0199505060018101905061073c565b50829750879550505050505092915050565b61078f81610a0a565b82525050565b60006107a0826109ad565b6107aa81856109d6565b93506107ba818560208601610a4d565b6107c381610b4b565b840191505092915050565b60006107db6020836109e7565b91506107e682610b5c565b602082019050919050565b60006107fe6040836109e7565b915061080982610b85565b604082019050919050565b600060608301600083015184820360008601526108318282610795565b9150506020830151848203602086015261084b8282610795565b915050604083015184820360408601526108658282610795565b9150508091505092915050565b61088361087e82610a34565b610ae3565b82525050565b60006108958284610872565b60208201915081905092915050565b60006020820190506108b96000830184610702565b92915050565b600060208201905081810360008301526108d98184610711565b905092915050565b60006020820190506108f66000830184610786565b92915050565b60006020820190508181036000830152610915816107ce565b9050919050565b60006020820190508181036000830152610935816107f1565b9050919050565b6000610946610957565b90506109528282610ab2565b919050565b6000604051905090565b600067ffffffffffffffff82111561097c5761097b610b1c565b5b61098582610b4b565b9050602081019050919050565b6000819050602082019050919050565b600081519050919050565b600081519050919050565b6000602082019050919050565b600082825260208201905092915050565b600082825260208201905092915050565b600082825260208201905092915050565b6000610a0382610a14565b9050919050565b6000819050919050565b600073ffffffffffffffffffffffffffffffffffffffff82169050919050565b6000819050919050565b82818337600083830152505050565b60005b83811015610a6b578082015181840152602081019050610a50565b83811115610a7a576000848401525b50505050565b60006002820490506001821680610a9857607f821691505b60208210811415610aac57610aab610aed565b5b50919050565b610abb82610b4b565b810181811067ffffffffffffffff82111715610ada57610ad9610b1c565b5b80604052505050565b6000819050919050565b7f4e487b7100000000000000000000000000000000000000000000000000000000600052602260045260246000fd5b7f4e487b7100000000000000000000000000000000000000000000000000000000600052604160045260246000fd5b6000601f19601f8301169050919050565b7f446562657320706f6e657220656c206e6f6d62726520616c20706f6b656d6f6e600082015250565b7f4e6f207469656e6573207065726d69736f73207061726120636170747572617260008201527f206573746f7320706f6b656d6f6e2070617261206573746120506f6b65646578602082015250565b610bdd81610a34565b8114610be857600080fd5b5056fea2646970667358221220eb5c7a0ee3822fe1b729936d1d6573a3a198a46591e751a789c55bdd382fd92c64736f6c63430008040033",
					"opcodes": "PUSH1 0x80 PUSH1 0x40 MSTORE CALLVALUE DUP1 ISZERO PUSH2 0x10 JUMPI PUSH1 0x0 DUP1 REVERT JUMPDEST POP CALLER PUSH1 0x1 PUSH1 0x0 PUSH2 0x100 EXP DUP2 SLOAD DUP2 PUSH20 0xFFFFFFFFFFFFFFFFFFFFFFFFFFFFFFFFFFFFFFFF MUL NOT AND SWAP1 DUP4 PUSH20 0xFFFFFFFFFFFFFFFFFFFFFFFFFFFFFFFFFFFFFFFF AND MUL OR SWAP1 SSTORE POP PUSH2 0xC21 DUP1 PUSH2 0x61 PUSH1 0x0 CODECOPY PUSH1 0x0 RETURN INVALID PUSH1 0x80 PUSH1 0x40 MSTORE CALLVALUE DUP1 ISZERO PUSH2 0x10 JUMPI PUSH1 0x0 DUP1 REVERT JUMPDEST POP PUSH1 0x4 CALLDATASIZE LT PUSH2 0x4C JUMPI PUSH1 0x0 CALLDATALOAD PUSH1 0xE0 SHR DUP1 PUSH4 0x57FB6B9C EQ PUSH2 0x51 JUMPI DUP1 PUSH4 0x817AE0C2 EQ PUSH2 0x6D JUMPI DUP1 PUSH4 0x8DA5CB5B EQ PUSH2 0x8B JUMPI DUP1 PUSH4 0xBDA02842 EQ PUSH2 0xA9 JUMPI JUMPDEST PUSH1 0x0 DUP1 REVERT JUMPDEST PUSH2 0x6B PUSH1 0x4 DUP1 CALLDATASIZE SUB DUP2 ADD SWAP1 PUSH2 0x66 SWAP2 SWAP1 PUSH2 0x62E JUMP JUMPDEST PUSH2 0xD9 JUMP JUMPDEST STOP JUMPDEST PUSH2 0x75 PUSH2 0x16F JUMP JUMPDEST PUSH1 0x40 MLOAD PUSH2 0x82 SWAP2 SWAP1 PUSH2 0x8BF JUMP JUMPDEST PUSH1 0x40 MLOAD DUP1 SWAP2 SUB SWAP1 RETURN JUMPDEST PUSH2 0x93 PUSH2 0x384 JUMP JUMPDEST PUSH1 0x40 MLOAD PUSH2 0xA0 SWAP2 SWAP1 PUSH2 0x8A4 JUMP JUMPDEST PUSH1 0x40 MLOAD DUP1 SWAP2 SUB SWAP1 RETURN JUMPDEST PUSH2 0xC3 PUSH1 0x4 DUP1 CALLDATASIZE SUB DUP2 ADD SWAP1 PUSH2 0xBE SWAP2 SWAP1 PUSH2 0x6C5 JUMP JUMPDEST PUSH2 0x3AA JUMP JUMPDEST PUSH1 0x40 MLOAD PUSH2 0xD0 SWAP2 SWAP1 PUSH2 0x8E1 JUMP JUMPDEST PUSH1 0x40 MLOAD DUP1 SWAP2 SUB SWAP1 RETURN JUMPDEST PUSH1 0x40 MLOAD DUP1 PUSH1 0x40 ADD PUSH1 0x40 MSTORE DUP1 PUSH1 0x1 DUP2 MSTORE PUSH1 0x20 ADD PUSH32 0x2000000000000000000000000000000000000000000000000000000000000000 DUP2 MSTORE POP DUP1 MLOAD SWAP1 PUSH1 0x20 ADD KECCAK256 DUP4 DUP1 MLOAD SWAP1 PUSH1 0x20 ADD KECCAK256 EQ ISZERO PUSH2 0x15F JUMPI PUSH1 0x40 MLOAD PUSH32 0x8C379A000000000000000000000000000000000000000000000000000000000 DUP2 MSTORE PUSH1 0x4 ADD PUSH2 0x156 SWAP1 PUSH2 0x8FC JUMP JUMPDEST PUSH1 0x40 MLOAD DUP1 SWAP2 SUB SWAP1 REVERT JUMPDEST PUSH2 0x16A DUP4 DUP4 DUP4 PUSH2 0x46A JUMP JUMPDEST POP POP POP JUMP JUMPDEST PUSH1 0x60 PUSH1 0x0 DUP1 SLOAD DUP1 PUSH1 0x20 MUL PUSH1 0x20 ADD PUSH1 0x40 MLOAD SWAP1 DUP2 ADD PUSH1 0x40 MSTORE DUP1 SWAP3 SWAP2 SWAP1 DUP2 DUP2 MSTORE PUSH1 0x20 ADD PUSH1 0x0 SWAP1 JUMPDEST DUP3 DUP3 LT ISZERO PUSH2 0x37B JUMPI DUP4 DUP3 SWAP1 PUSH1 0x0 MSTORE PUSH1 0x20 PUSH1 0x0 KECCAK256 SWAP1 PUSH1 0x3 MUL ADD PUSH1 0x40 MLOAD DUP1 PUSH1 0x60 ADD PUSH1 0x40 MSTORE SWAP1 DUP2 PUSH1 0x0 DUP3 ADD DUP1 SLOAD PUSH2 0x1C6 SWAP1 PUSH2 0xA80 JUMP JUMPDEST DUP1 PUSH1 0x1F ADD PUSH1 0x20 DUP1 SWAP2 DIV MUL PUSH1 0x20 ADD PUSH1 0x40 MLOAD SWAP1 DUP2 ADD PUSH1 0x40 MSTORE DUP1 SWAP3 SWAP2 SWAP1 DUP2 DUP2 MSTORE PUSH1 0x20 ADD DUP3 DUP1 SLOAD PUSH2 0x1F2 SWAP1 PUSH2 0xA80 JUMP JUMPDEST DUP1 ISZERO PUSH2 0x23F JUMPI DUP1 PUSH1 0x1F LT PUSH2 0x214 JUMPI PUSH2 0x100 DUP1 DUP4 SLOAD DIV MUL DUP4 MSTORE SWAP2 PUSH1 0x20 ADD SWAP2 PUSH2 0x23F JUMP JUMPDEST DUP3 ADD SWAP2 SWAP1 PUSH1 0x0 MSTORE PUSH1 0x20 PUSH1 0x0 KECCAK256 SWAP1 JUMPDEST DUP2 SLOAD DUP2 MSTORE SWAP1 PUSH1 0x1 ADD SWAP1 PUSH1 0x20 ADD DUP1 DUP4 GT PUSH2 0x222 JUMPI DUP3 SWAP1 SUB PUSH1 0x1F AND DUP3 ADD SWAP2 JUMPDEST POP POP POP POP POP DUP2 MSTORE PUSH1 0x20 ADD PUSH1 0x1 DUP3 ADD DUP1 SLOAD PUSH2 0x258 SWAP1 PUSH2 0xA80 JUMP JUMPDEST DUP1 PUSH1 0x1F ADD PUSH1 0x20 DUP1 SWAP2 DIV MUL PUSH1 0x20 ADD PUSH1 0x40 MLOAD SWAP1 DUP2 ADD PUSH1 0x40 MSTORE DUP1 SWAP3 SWAP2 SWAP1 DUP2 DUP2 MSTORE PUSH1 0x20 ADD DUP3 DUP1 SLOAD PUSH2 0x284 SWAP1 PUSH2 0xA80 JUMP JUMPDEST DUP1 ISZERO PUSH2 0x2D1 JUMPI DUP1 PUSH1 0x1F LT PUSH2 0x2A6 JUMPI PUSH2 0x100 DUP1 DUP4 SLOAD DIV MUL DUP4 MSTORE SWAP2 PUSH1 0x20 ADD SWAP2 PUSH2 0x2D1 JUMP JUMPDEST DUP3 ADD SWAP2 SWAP1 PUSH1 0x0 MSTORE PUSH1 0x20 PUSH1 0x0 KECCAK256 SWAP1 JUMPDEST DUP2 SLOAD DUP2 MSTORE SWAP1 PUSH1 0x1 ADD SWAP1 PUSH1 0x20 ADD DUP1 DUP4 GT PUSH2 0x2B4 JUMPI DUP3 SWAP1 SUB PUSH1 0x1F AND DUP3 ADD SWAP2 JUMPDEST POP POP POP POP POP DUP2 MSTORE PUSH1 0x20 ADD PUSH1 0x2 DUP3 ADD DUP1 SLOAD PUSH2 0x2EA SWAP1 PUSH2 0xA80 JUMP JUMPDEST DUP1 PUSH1 0x1F ADD PUSH1 0x20 DUP1 SWAP2 DIV MUL PUSH1 0x20 ADD PUSH1 0x40 MLOAD SWAP1 DUP2 ADD PUSH1 0x40 MSTORE DUP1 SWAP3 SWAP2 SWAP1 DUP2 DUP2 MSTORE PUSH1 0x20 ADD DUP3 DUP1 SLOAD PUSH2 0x316 SWAP1 PUSH2 0xA80 JUMP JUMPDEST DUP1 ISZERO PUSH2 0x363 JUMPI DUP1 PUSH1 0x1F LT PUSH2 0x338 JUMPI PUSH2 0x100 DUP1 DUP4 SLOAD DIV MUL DUP4 MSTORE SWAP2 PUSH1 0x20 ADD SWAP2 PUSH2 0x363 JUMP JUMPDEST DUP3 ADD SWAP2 SWAP1 PUSH1 0x0 MSTORE PUSH1 0x20 PUSH1 0x0 KECCAK256 SWAP1 JUMPDEST DUP2 SLOAD DUP2 MSTORE SWAP1 PUSH1 0x1 ADD SWAP1 PUSH1 0x20 ADD DUP1 DUP4 GT PUSH2 0x346 JUMPI DUP3 SWAP1 SUB PUSH1 0x1F AND DUP3 ADD SWAP2 JUMPDEST POP POP POP POP POP DUP2 MSTORE POP POP DUP2 MSTORE PUSH1 0x20 ADD SWAP1 PUSH1 0x1 ADD SWAP1 PUSH2 0x193 JUMP JUMPDEST POP POP POP POP SWAP1 POP SWAP1 JUMP JUMPDEST PUSH1 0x1 PUSH1 0x0 SWAP1 SLOAD SWAP1 PUSH2 0x100 EXP SWAP1 DIV PUSH20 0xFFFFFFFFFFFFFFFFFFFFFFFFFFFFFFFFFFFFFFFF AND DUP2 JUMP JUMPDEST PUSH1 0x0 CALLER PUSH20 0xFFFFFFFFFFFFFFFFFFFFFFFFFFFFFFFFFFFFFFFF AND PUSH1 0x1 PUSH1 0x0 SWAP1 SLOAD SWAP1 PUSH2 0x100 EXP SWAP1 DIV PUSH20 0xFFFFFFFFFFFFFFFFFFFFFFFFFFFFFFFFFFFFFFFF AND PUSH20 0xFFFFFFFFFFFFFFFFFFFFFFFFFFFFFFFFFFFFFFFF AND EQ PUSH2 0x43C JUMPI PUSH1 0x40 MLOAD PUSH32 0x8C379A000000000000000000000000000000000000000000000000000000000 DUP2 MSTORE PUSH1 0x4 ADD PUSH2 0x433 SWAP1 PUSH2 0x91C JUMP JUMPDEST PUSH1 0x40 MLOAD DUP1 SWAP2 SUB SWAP1 REVERT JUMPDEST DUP2 PUSH1 0x40 MLOAD PUSH1 0x20 ADD PUSH2 0x44D SWAP2 SWAP1 PUSH2 0x889 JUMP JUMPDEST PUSH1 0x40 MLOAD PUSH1 0x20 DUP2 DUP4 SUB SUB DUP2 MSTORE SWAP1 PUSH1 0x40 MSTORE DUP1 MLOAD SWAP1 PUSH1 0x20 ADD KECCAK256 SWAP1 POP SWAP2 SWAP1 POP JUMP JUMPDEST PUSH1 0x0 PUSH1 0x40 MLOAD DUP1 PUSH1 0x60 ADD PUSH1 0x40 MSTORE DUP1 DUP6 DUP2 MSTORE PUSH1 0x20 ADD DUP5 DUP2 MSTORE PUSH1 0x20 ADD DUP4 DUP2 MSTORE POP SWAP1 DUP1 PUSH1 0x1 DUP2 SLOAD ADD DUP1 DUP3 SSTORE DUP1 SWAP2 POP POP PUSH1 0x1 SWAP1 SUB SWAP1 PUSH1 0x0 MSTORE PUSH1 0x20 PUSH1 0x0 KECCAK256 SWAP1 PUSH1 0x3 MUL ADD PUSH1 0x0 SWAP1 SWAP2 SWAP1 SWAP2 SWAP1 SWAP2 POP PUSH1 0x0 DUP3 ADD MLOAD DUP2 PUSH1 0x0 ADD SWAP1 DUP1 MLOAD SWAP1 PUSH1 0x20 ADD SWAP1 PUSH2 0x4CC SWAP3 SWAP2 SWAP1 PUSH2 0x50E JUMP JUMPDEST POP PUSH1 0x20 DUP3 ADD MLOAD DUP2 PUSH1 0x1 ADD SWAP1 DUP1 MLOAD SWAP1 PUSH1 0x20 ADD SWAP1 PUSH2 0x4E9 SWAP3 SWAP2 SWAP1 PUSH2 0x50E JUMP JUMPDEST POP PUSH1 0x40 DUP3 ADD MLOAD DUP2 PUSH1 0x2 ADD SWAP1 DUP1 MLOAD SWAP1 PUSH1 0x20 ADD SWAP1 PUSH2 0x506 SWAP3 SWAP2 SWAP1 PUSH2 0x50E JUMP JUMPDEST POP POP POP POP POP POP JUMP JUMPDEST DUP3 DUP1 SLOAD PUSH2 0x51A SWAP1 PUSH2 0xA80 JUMP JUMPDEST SWAP1 PUSH1 0x0 MSTORE PUSH1 0x20 PUSH1 0x0 KECCAK256 SWAP1 PUSH1 0x1F ADD PUSH1 0x20 SWAP1 DIV DUP2 ADD SWAP3 DUP3 PUSH2 0x53C JUMPI PUSH1 0x0 DUP6 SSTORE PUSH2 0x583 JUMP JUMPDEST DUP3 PUSH1 0x1F LT PUSH2 0x555 JUMPI DUP1 MLOAD PUSH1 0xFF NOT AND DUP4 DUP1 ADD OR DUP6 SSTORE PUSH2 0x583 JUMP JUMPDEST DUP3 DUP1 ADD PUSH1 0x1 ADD DUP6 SSTORE DUP3 ISZERO PUSH2 0x583 JUMPI SWAP2 DUP3 ADD JUMPDEST DUP3 DUP2 GT ISZERO PUSH2 0x582 JUMPI DUP3 MLOAD DUP3 SSTORE SWAP2 PUSH1 0x20 ADD SWAP2 SWAP1 PUSH1 0x1 ADD SWAP1 PUSH2 0x567 JUMP JUMPDEST JUMPDEST POP SWAP1 POP PUSH2 0x590 SWAP2 SWAP1 PUSH2 0x594 JUMP JUMPDEST POP SWAP1 JUMP JUMPDEST JUMPDEST DUP1 DUP3 GT ISZERO PUSH2 0x5AD JUMPI PUSH1 0x0 DUP2 PUSH1 0x0 SWAP1 SSTORE POP PUSH1 0x1 ADD PUSH2 0x595 JUMP JUMPDEST POP SWAP1 JUMP JUMPDEST PUSH1 0x0 PUSH2 0x5C4 PUSH2 0x5BF DUP5 PUSH2 0x961 JUMP JUMPDEST PUSH2 0x93C JUMP JUMPDEST SWAP1 POP DUP3 DUP2 MSTORE PUSH1 0x20 DUP2 ADD DUP5 DUP5 DUP5 ADD GT ISZERO PUSH2 0x5DC JUMPI PUSH1 0x0 DUP1 REVERT JUMPDEST PUSH2 0x5E7 DUP5 DUP3 DUP6 PUSH2 0xA3E JUMP JUMPDEST POP SWAP4 SWAP3 POP POP POP JUMP JUMPDEST PUSH1 0x0 DUP3 PUSH1 0x1F DUP4 ADD SLT PUSH2 0x600 JUMPI PUSH1 0x0 DUP1 REVERT JUMPDEST DUP2 CALLDATALOAD PUSH2 0x610 DUP5 DUP3 PUSH1 0x20 DUP7 ADD PUSH2 0x5B1 JUMP JUMPDEST SWAP2 POP POP SWAP3 SWAP2 POP POP JUMP JUMPDEST PUSH1 0x0 DUP2 CALLDATALOAD SWAP1 POP PUSH2 0x628 DUP2 PUSH2 0xBD4 JUMP JUMPDEST SWAP3 SWAP2 POP POP JUMP JUMPDEST PUSH1 0x0 DUP1 PUSH1 0x0 PUSH1 0x60 DUP5 DUP7 SUB SLT ISZERO PUSH2 0x643 JUMPI PUSH1 0x0 DUP1 REVERT JUMPDEST PUSH1 0x0 DUP5 ADD CALLDATALOAD PUSH8 0xFFFFFFFFFFFFFFFF DUP2 GT ISZERO PUSH2 0x65D JUMPI PUSH1 0x0 DUP1 REVERT JUMPDEST PUSH2 0x669 DUP7 DUP3 DUP8 ADD PUSH2 0x5EF JUMP JUMPDEST SWAP4 POP POP PUSH1 0x20 DUP5 ADD CALLDATALOAD PUSH8 0xFFFFFFFFFFFFFFFF DUP2 GT ISZERO PUSH2 0x686 JUMPI PUSH1 0x0 DUP1 REVERT JUMPDEST PUSH2 0x692 DUP7 DUP3 DUP8 ADD PUSH2 0x5EF JUMP JUMPDEST SWAP3 POP POP PUSH1 0x40 DUP5 ADD CALLDATALOAD PUSH8 0xFFFFFFFFFFFFFFFF DUP2 GT ISZERO PUSH2 0x6AF JUMPI PUSH1 0x0 DUP1 REVERT JUMPDEST PUSH2 0x6BB DUP7 DUP3 DUP8 ADD PUSH2 0x5EF JUMP JUMPDEST SWAP2 POP POP SWAP3 POP SWAP3 POP SWAP3 JUMP JUMPDEST PUSH1 0x0 PUSH1 0x20 DUP3 DUP5 SUB SLT ISZERO PUSH2 0x6D7 JUMPI PUSH1 0x0 DUP1 REVERT JUMPDEST PUSH1 0x0 PUSH2 0x6E5 DUP5 DUP3 DUP6 ADD PUSH2 0x619 JUMP JUMPDEST SWAP2 POP POP SWAP3 SWAP2 POP POP JUMP JUMPDEST PUSH1 0x0 PUSH2 0x6FA DUP4 DUP4 PUSH2 0x814 JUMP JUMPDEST SWAP1 POP SWAP3 SWAP2 POP POP JUMP JUMPDEST PUSH2 0x70B DUP2 PUSH2 0x9F8 JUMP JUMPDEST DUP3 MSTORE POP POP JUMP JUMPDEST PUSH1 0x0 PUSH2 0x71C DUP3 PUSH2 0x9A2 JUMP JUMPDEST PUSH2 0x726 DUP2 DUP6 PUSH2 0x9C5 JUMP JUMPDEST SWAP4 POP DUP4 PUSH1 0x20 DUP3 MUL DUP6 ADD PUSH2 0x738 DUP6 PUSH2 0x992 JUMP JUMPDEST DUP1 PUSH1 0x0 JUMPDEST DUP6 DUP2 LT ISZERO PUSH2 0x774 JUMPI DUP5 DUP5 SUB DUP10 MSTORE DUP2 MLOAD PUSH2 0x755 DUP6 DUP3 PUSH2 0x6EE JUMP JUMPDEST SWAP5 POP PUSH2 0x760 DUP4 PUSH2 0x9B8 JUMP JUMPDEST SWAP3 POP PUSH1 0x20 DUP11 ADD SWAP10 POP POP PUSH1 0x1 DUP2 ADD SWAP1 POP PUSH2 0x73C JUMP JUMPDEST POP DUP3 SWAP8 POP DUP8 SWAP6 POP POP POP POP POP POP SWAP3 SWAP2 POP POP JUMP JUMPDEST PUSH2 0x78F DUP2 PUSH2 0xA0A JUMP JUMPDEST DUP3 MSTORE POP POP JUMP JUMPDEST PUSH1 0x0 PUSH2 0x7A0 DUP3 PUSH2 0x9AD JUMP JUMPDEST PUSH2 0x7AA DUP2 DUP6 PUSH2 0x9D6 JUMP JUMPDEST SWAP4 POP PUSH2 0x7BA DUP2 DUP6 PUSH1 0x20 DUP7 ADD PUSH2 0xA4D JUMP JUMPDEST PUSH2 0x7C3 DUP2 PUSH2 0xB4B JUMP JUMPDEST DUP5 ADD SWAP2 POP POP SWAP3 SWAP2 POP POP JUMP JUMPDEST PUSH1 0x0 PUSH2 0x7DB PUSH1 0x20 DUP4 PUSH2 0x9E7 JUMP JUMPDEST SWAP2 POP PUSH2 0x7E6 DUP3 PUSH2 0xB5C JUMP JUMPDEST PUSH1 0x20 DUP3 ADD SWAP1 POP SWAP2 SWAP1 POP JUMP JUMPDEST PUSH1 0x0 PUSH2 0x7FE PUSH1 0x40 DUP4 PUSH2 0x9E7 JUMP JUMPDEST SWAP2 POP PUSH2 0x809 DUP3 PUSH2 0xB85 JUMP JUMPDEST PUSH1 0x40 DUP3 ADD SWAP1 POP SWAP2 SWAP1 POP JUMP JUMPDEST PUSH1 0x0 PUSH1 0x60 DUP4 ADD PUSH1 0x0 DUP4 ADD MLOAD DUP5 DUP3 SUB PUSH1 0x0 DUP7 ADD MSTORE PUSH2 0x831 DUP3 DUP3 PUSH2 0x795 JUMP JUMPDEST SWAP2 POP POP PUSH1 0x20 DUP4 ADD MLOAD DUP5 DUP3 SUB PUSH1 0x20 DUP7 ADD MSTORE PUSH2 0x84B DUP3 DUP3 PUSH2 0x795 JUMP JUMPDEST SWAP2 POP POP PUSH1 0x40 DUP4 ADD MLOAD DUP5 DUP3 SUB PUSH1 0x40 DUP7 ADD MSTORE PUSH2 0x865 DUP3 DUP3 PUSH2 0x795 JUMP JUMPDEST SWAP2 POP POP DUP1 SWAP2 POP POP SWAP3 SWAP2 POP POP JUMP JUMPDEST PUSH2 0x883 PUSH2 0x87E DUP3 PUSH2 0xA34 JUMP JUMPDEST PUSH2 0xAE3 JUMP JUMPDEST DUP3 MSTORE POP POP JUMP JUMPDEST PUSH1 0x0 PUSH2 0x895 DUP3 DUP5 PUSH2 0x872 JUMP JUMPDEST PUSH1 0x20 DUP3 ADD SWAP2 POP DUP2 SWAP1 POP SWAP3 SWAP2 POP POP JUMP JUMPDEST PUSH1 0x0 PUSH1 0x20 DUP3 ADD SWAP1 POP PUSH2 0x8B9 PUSH1 0x0 DUP4 ADD DUP5 PUSH2 0x702 JUMP JUMPDEST SWAP3 SWAP2 POP POP JUMP JUMPDEST PUSH1 0x0 PUSH1 0x20 DUP3 ADD SWAP1 POP DUP2 DUP2 SUB PUSH1 0x0 DUP4 ADD MSTORE PUSH2 0x8D9 DUP2 DUP5 PUSH2 0x711 JUMP JUMPDEST SWAP1 POP SWAP3 SWAP2 POP POP JUMP JUMPDEST PUSH1 0x0 PUSH1 0x20 DUP3 ADD SWAP1 POP PUSH2 0x8F6 PUSH1 0x0 DUP4 ADD DUP5 PUSH2 0x786 JUMP JUMPDEST SWAP3 SWAP2 POP POP JUMP JUMPDEST PUSH1 0x0 PUSH1 0x20 DUP3 ADD SWAP1 POP DUP2 DUP2 SUB PUSH1 0x0 DUP4 ADD MSTORE PUSH2 0x915 DUP2 PUSH2 0x7CE JUMP JUMPDEST SWAP1 POP SWAP2 SWAP1 POP JUMP JUMPDEST PUSH1 0x0 PUSH1 0x20 DUP3 ADD SWAP1 POP DUP2 DUP2 SUB PUSH1 0x0 DUP4 ADD MSTORE PUSH2 0x935 DUP2 PUSH2 0x7F1 JUMP JUMPDEST SWAP1 POP SWAP2 SWAP1 POP JUMP JUMPDEST PUSH1 0x0 PUSH2 0x946 PUSH2 0x957 JUMP JUMPDEST SWAP1 POP PUSH2 0x952 DUP3 DUP3 PUSH2 0xAB2 JUMP JUMPDEST SWAP2 SWAP1 POP JUMP JUMPDEST PUSH1 0x0 PUSH1 0x40 MLOAD SWAP1 POP SWAP1 JUMP JUMPDEST PUSH1 0x0 PUSH8 0xFFFFFFFFFFFFFFFF DUP3 GT ISZERO PUSH2 0x97C JUMPI PUSH2 0x97B PUSH2 0xB1C JUMP JUMPDEST JUMPDEST PUSH2 0x985 DUP3 PUSH2 0xB4B JUMP JUMPDEST SWAP1 POP PUSH1 0x20 DUP2 ADD SWAP1 POP SWAP2 SWAP1 POP JUMP JUMPDEST PUSH1 0x0 DUP2 SWAP1 POP PUSH1 0x20 DUP3 ADD SWAP1 POP SWAP2 SWAP1 POP JUMP JUMPDEST PUSH1 0x0 DUP2 MLOAD SWAP1 POP SWAP2 SWAP1 POP JUMP JUMPDEST PUSH1 0x0 DUP2 MLOAD SWAP1 POP SWAP2 SWAP1 POP JUMP JUMPDEST PUSH1 0x0 PUSH1 0x20 DUP3 ADD SWAP1 POP SWAP2 SWAP1 POP JUMP JUMPDEST PUSH1 0x0 DUP3 DUP3 MSTORE PUSH1 0x20 DUP3 ADD SWAP1 POP SWAP3 SWAP2 POP POP JUMP JUMPDEST PUSH1 0x0 DUP3 DUP3 MSTORE PUSH1 0x20 DUP3 ADD SWAP1 POP SWAP3 SWAP2 POP POP JUMP JUMPDEST PUSH1 0x0 DUP3 DUP3 MSTORE PUSH1 0x20 DUP3 ADD SWAP1 POP SWAP3 SWAP2 POP POP JUMP JUMPDEST PUSH1 0x0 PUSH2 0xA03 DUP3 PUSH2 0xA14 JUMP JUMPDEST SWAP1 POP SWAP2 SWAP1 POP JUMP JUMPDEST PUSH1 0x0 DUP2 SWAP1 POP SWAP2 SWAP1 POP JUMP JUMPDEST PUSH1 0x0 PUSH20 0xFFFFFFFFFFFFFFFFFFFFFFFFFFFFFFFFFFFFFFFF DUP3 AND SWAP1 POP SWAP2 SWAP1 POP JUMP JUMPDEST PUSH1 0x0 DUP2 SWAP1 POP SWAP2 SWAP1 POP JUMP JUMPDEST DUP3 DUP2 DUP4 CALLDATACOPY PUSH1 0x0 DUP4 DUP4 ADD MSTORE POP POP POP JUMP JUMPDEST PUSH1 0x0 JUMPDEST DUP4 DUP2 LT ISZERO PUSH2 0xA6B JUMPI DUP1 DUP3 ADD MLOAD DUP2 DUP5 ADD MSTORE PUSH1 0x20 DUP2 ADD SWAP1 POP PUSH2 0xA50 JUMP JUMPDEST DUP4 DUP2 GT ISZERO PUSH2 0xA7A JUMPI PUSH1 0x0 DUP5 DUP5 ADD MSTORE JUMPDEST POP POP POP POP JUMP JUMPDEST PUSH1 0x0 PUSH1 0x2 DUP3 DIV SWAP1 POP PUSH1 0x1 DUP3 AND DUP1 PUSH2 0xA98 JUMPI PUSH1 0x7F DUP3 AND SWAP2 POP JUMPDEST PUSH1 0x20 DUP3 LT DUP2 EQ ISZERO PUSH2 0xAAC JUMPI PUSH2 0xAAB PUSH2 0xAED JUMP JUMPDEST JUMPDEST POP SWAP2 SWAP1 POP JUMP JUMPDEST PUSH2 0xABB DUP3 PUSH2 0xB4B JUMP JUMPDEST DUP2 ADD DUP2 DUP2 LT PUSH8 0xFFFFFFFFFFFFFFFF DUP3 GT OR ISZERO PUSH2 0xADA JUMPI PUSH2 0xAD9 PUSH2 0xB1C JUMP JUMPDEST JUMPDEST DUP1 PUSH1 0x40 MSTORE POP POP POP JUMP JUMPDEST PUSH1 0x0 DUP2 SWAP1 POP SWAP2 SWAP1 POP JUMP JUMPDEST PUSH32 0x4E487B7100000000000000000000000000000000000000000000000000000000 PUSH1 0x0 MSTORE PUSH1 0x22 PUSH1 0x4 MSTORE PUSH1 0x24 PUSH1 0x0 REVERT JUMPDEST PUSH32 0x4E487B7100000000000000000000000000000000000000000000000000000000 PUSH1 0x0 MSTORE PUSH1 0x41 PUSH1 0x4 MSTORE PUSH1 0x24 PUSH1 0x0 REVERT JUMPDEST PUSH1 0x0 PUSH1 0x1F NOT PUSH1 0x1F DUP4 ADD AND SWAP1 POP SWAP2 SWAP1 POP JUMP JUMPDEST PUSH32 0x446562657320706F6E657220656C206E6F6D62726520616C20706F6B656D6F6E PUSH1 0x0 DUP3 ADD MSTORE POP JUMP JUMPDEST PUSH32 0x4E6F207469656E6573207065726D69736F732070617261206361707475726172 PUSH1 0x0 DUP3 ADD MSTORE PUSH32 0x206573746F7320706F6B656D6F6E2070617261206573746120506F6B65646578 PUSH1 0x20 DUP3 ADD MSTORE POP JUMP JUMPDEST PUSH2 0xBDD DUP2 PUSH2 0xA34 JUMP JUMPDEST DUP2 EQ PUSH2 0xBE8 JUMPI PUSH1 0x0 DUP1 REVERT JUMPDEST POP JUMP INVALID LOG2 PUSH5 0x6970667358 0x22 SLT KECCAK256 0xEB 0x5C PUSH27 0xEE3822FE1B729936D1D6573A3A198A46591E751A789C55BDD382F 0xD9 0x2C PUSH5 0x736F6C6343 STOP ADDMOD DIV STOP CALLER "
				},
				"gasEstimates": {
					"creation": {
						"codeDepositCost": "621000",
						"executionCost": "21523",
						"totalCost": "642523"
					},
					"external": {
						"getPokedex()": "infinite",
						"hashPrivateNumber(uint256)": "infinite",
						"lanzar_pokeball(string,string,string)": "infinite",
						"owner()": "1236"
					}
				},
				"methodIdentifiers": {
					"getPokedex()": "817ae0c2",
					"hashPrivateNumber(uint256)": "bda02842",
					"lanzar_pokeball(string,string,string)": "57fb6b9c",
					"owner()": "8da5cb5b"
				}
			},
			"storageLayout": {
				"storage": [
					{
						"astId": 12,
						"contract": "contracts/pokemon.sol:Entrador_pokemon",
						"label": "pokedex",
						"offset": 0,
						"slot": "0",
						"type": "t_array(t_struct(cualidades)8_storage)dyn_storage"
					},
					{
						"astId": 37,
						"contract": "contracts/pokemon.sol:Entrador_pokemon",
						"label": "owner",
						"offset": 0,
						"slot": "1",
						"type": "t_address"
					}
				],
				"types": {
					"t_address": {
						"encoding": "inplace",
						"label": "address",
						"numberOfBytes": "20"
					},
					"t_array(t_struct(cualidades)8_storage)dyn_storage": {
						"base": "t_struct(cualidades)8_storage",
						"encoding": "dynamic_array",
						"label": "struct Pokemon.cualidades[]",
						"numberOfBytes": "32"
					},
					"t_string_storage": {
						"encoding": "bytes",
						"label": "string",
						"numberOfBytes": "32"
					},
					"t_struct(cualidades)8_storage": {
						"encoding": "inplace",
						"label": "struct Pokemon.cualidades",
						"members": [
							{
								"astId": 3,
								"contract": "contracts/pokemon.sol:Entrador_pokemon",
								"label": "name",
								"offset": 0,
								"slot": "0",
								"type": "t_string_storage"
							},
							{
								"astId": 5,
								"contract": "contracts/pokemon.sol:Entrador_pokemon",
								"label": "tipo_pokemon",
								"offset": 0,
								"slot": "1",
								"type": "t_string_storage"
							},
							{
								"astId": 7,
								"contract": "contracts/pokemon.sol:Entrador_pokemon",
								"label": "ataque",
								"offset": 0,
								"slot": "2",
								"type": "t_string_storage"
							}
						],
						"numberOfBytes": "96"
					}
				}
			},
			"userdoc": {
				"kind": "user",
				"methods": {},
				"version": 1
			}
		}
	}
}